{
  "contractName": "FlightSuretyData",
  "abi": [
    {
      "inputs": [],
      "payable": true,
      "stateMutability": "payable",
      "type": "constructor"
    },
    {
      "anonymous": false,
      "inputs": [
        {
          "indexed": false,
          "internalType": "address",
          "name": "airlineAddress",
          "type": "address"
        }
      ],
      "name": "AirlineMembershipActived",
      "type": "event"
    },
    {
      "anonymous": false,
      "inputs": [
        {
          "indexed": false,
          "internalType": "address",
          "name": "airlineAddress",
          "type": "address"
        },
        {
          "indexed": false,
          "internalType": "uint256",
          "name": "amount",
          "type": "uint256"
        }
      ],
      "name": "AirlinePayedFund",
      "type": "event"
    },
    {
      "payable": true,
      "stateMutability": "payable",
      "type": "fallback"
    },
    {
      "constant": true,
      "inputs": [],
      "name": "isOperational",
      "outputs": [
        {
          "internalType": "bool",
          "name": "",
          "type": "bool"
        }
      ],
      "payable": false,
      "stateMutability": "view",
      "type": "function"
    },
    {
      "constant": false,
      "inputs": [
        {
          "internalType": "bool",
          "name": "mode",
          "type": "bool"
        }
      ],
      "name": "setOperatingStatus",
      "outputs": [],
      "payable": false,
      "stateMutability": "nonpayable",
      "type": "function"
    },
    {
      "constant": false,
      "inputs": [
        {
          "internalType": "address",
          "name": "contractCaller",
          "type": "address"
        }
      ],
      "name": "authorizeCaller",
      "outputs": [],
      "payable": false,
      "stateMutability": "nonpayable",
      "type": "function"
    },
    {
      "constant": true,
      "inputs": [
        {
          "internalType": "address",
          "name": "contractAddress",
          "type": "address"
        }
      ],
      "name": "isCallerAuthorized",
      "outputs": [
        {
          "internalType": "bool",
          "name": "",
          "type": "bool"
        }
      ],
      "payable": false,
      "stateMutability": "view",
      "type": "function"
    },
    {
      "constant": true,
      "inputs": [
        {
          "internalType": "address",
          "name": "airlineAddress",
          "type": "address"
        }
      ],
      "name": "isAirlineRegistered",
      "outputs": [
        {
          "internalType": "bool",
          "name": "",
          "type": "bool"
        }
      ],
      "payable": false,
      "stateMutability": "view",
      "type": "function"
    },
    {
      "constant": false,
      "inputs": [
        {
          "internalType": "address",
          "name": "airlineAddress",
          "type": "address"
        },
        {
          "internalType": "string",
          "name": "airlineName",
          "type": "string"
        },
        {
          "internalType": "enum FlightSuretyData.AirlineState",
          "name": "airlineStatus",
          "type": "uint8"
        }
      ],
      "name": "registerAirline",
      "outputs": [],
      "payable": false,
      "stateMutability": "nonpayable",
      "type": "function"
    },
    {
      "constant": false,
      "inputs": [
        {
          "internalType": "uint256",
          "name": "registrationFee",
          "type": "uint256"
        }
      ],
      "name": "setAirlineRegistrationFee",
      "outputs": [],
      "payable": false,
      "stateMutability": "nonpayable",
      "type": "function"
    },
    {
      "constant": false,
      "inputs": [
        {
          "internalType": "address",
          "name": "contractCallerAddress",
          "type": "address"
        }
      ],
      "name": "setAuthorizedAddress",
      "outputs": [],
      "payable": false,
      "stateMutability": "nonpayable",
      "type": "function"
    },
    {
      "constant": false,
      "inputs": [],
      "name": "airlinePayFund",
      "outputs": [],
      "payable": true,
      "stateMutability": "payable",
      "type": "function"
    },
    {
      "constant": true,
      "inputs": [
        {
          "internalType": "address",
          "name": "airlineAddress",
          "type": "address"
        }
      ],
      "name": "isAirlineMember",
      "outputs": [
        {
          "internalType": "bool",
          "name": "",
          "type": "bool"
        }
      ],
      "payable": false,
      "stateMutability": "view",
      "type": "function"
    },
    {
      "constant": false,
      "inputs": [
        {
          "internalType": "address",
          "name": "airlineAddress",
          "type": "address"
        },
        {
          "internalType": "enum FlightSuretyData.AirlineState",
          "name": "airlineState",
          "type": "uint8"
        }
      ],
      "name": "setAirlineState",
      "outputs": [],
      "payable": false,
      "stateMutability": "nonpayable",
      "type": "function"
    },
    {
      "constant": true,
      "inputs": [
        {
          "internalType": "address",
          "name": "airlineAddress",
          "type": "address"
        }
      ],
      "name": "getAirlineState",
      "outputs": [
        {
          "internalType": "enum FlightSuretyData.AirlineState",
          "name": "",
          "type": "uint8"
        }
      ],
      "payable": false,
      "stateMutability": "view",
      "type": "function"
    },
    {
      "constant": true,
      "inputs": [],
      "name": "airlineMemberCount",
      "outputs": [
        {
          "internalType": "uint256",
          "name": "",
          "type": "uint256"
        }
      ],
      "payable": false,
      "stateMutability": "view",
      "type": "function"
    },
    {
      "constant": true,
      "inputs": [
        {
          "internalType": "address",
          "name": "airlineAddress",
          "type": "address"
        }
      ],
      "name": "airlineInfo",
      "outputs": [
        {
          "internalType": "string",
          "name": "name",
          "type": "string"
        },
        {
          "internalType": "uint256",
          "name": "registerAmount",
          "type": "uint256"
        },
        {
          "internalType": "enum FlightSuretyData.AirlineState",
          "name": "airlineState",
          "type": "uint8"
        },
        {
          "internalType": "bool",
          "name": "isValue",
          "type": "bool"
        }
      ],
      "payable": false,
      "stateMutability": "view",
      "type": "function"
    },
    {
      "constant": false,
      "inputs": [
        {
          "internalType": "address",
          "name": "airlineAddress",
          "type": "address"
        },
        {
          "internalType": "bool",
          "name": "vote",
          "type": "bool"
        }
      ],
      "name": "voteOnAirline",
      "outputs": [
        {
          "internalType": "uint256",
          "name": "",
          "type": "uint256"
        },
        {
          "internalType": "uint256",
          "name": "",
          "type": "uint256"
        }
      ],
      "payable": false,
      "stateMutability": "nonpayable",
      "type": "function"
    },
    {
      "constant": false,
      "inputs": [
        {
          "internalType": "address",
          "name": "passengerAddress",
          "type": "address"
        },
        {
          "internalType": "address",
          "name": "airlineAddress",
          "type": "address"
        },
        {
          "internalType": "string",
          "name": "flightName",
          "type": "string"
        },
        {
          "internalType": "uint256",
          "name": "departureTime",
          "type": "uint256"
        },
        {
          "internalType": "uint256",
          "name": "insuranceCost",
          "type": "uint256"
        }
      ],
      "name": "buyFlightInsurance",
      "outputs": [],
      "payable": true,
      "stateMutability": "payable",
      "type": "function"
    },
    {
      "constant": false,
      "inputs": [
        {
          "internalType": "bytes32",
          "name": "flightKey",
          "type": "bytes32"
        },
        {
          "internalType": "uint256",
          "name": "payoutRate",
          "type": "uint256"
        }
      ],
      "name": "creditInsurees",
      "outputs": [],
      "payable": false,
      "stateMutability": "nonpayable",
      "type": "function"
    },
    {
      "constant": false,
      "inputs": [
        {
          "internalType": "bytes32",
          "name": "insuranceKey",
          "type": "bytes32"
        }
      ],
      "name": "payoutInsuree",
      "outputs": [],
      "payable": false,
      "stateMutability": "nonpayable",
      "type": "function"
    }
  ],
  "bytecode": "0x60806040526001600060146101000a81548160ff02191690831515021790555060006002556000600355336000806101000a81548173ffffffffffffffffffffffffffffffffffffffff021916908373ffffffffffffffffffffffffffffffffffffffff160217905550620000b2336040518060400160405280600e81526020017f416d65726963616e20466c7965720000000000000000000000000000000000008152506003620000b860201b60201c565b620002c1565b6040518060a0016040528083815260200160008152602001826003811115620000dd57fe5b81526020016040518060400160405280600060ff168152602001600060ff16815250815260200160011515815250600560008573ffffffffffffffffffffffffffffffffffffffff1673ffffffffffffffffffffffffffffffffffffffff16815260200190815260200160002060008201518160000190805190602001906200016892919062000212565b506020820151816001015560408201518160020160006101000a81548160ff021916908360038111156200019857fe5b021790555060608201518160030160008201518160010160006101000a81548160ff021916908360ff16021790555060208201518160010160016101000a81548160ff021916908360ff160217905550505060808201518160050160006101000a81548160ff021916908315150217905550905050505050565b828054600181600116156101000203166002900490600052602060002090601f016020900481019282601f106200025557805160ff191683800117855562000286565b8280016001018555821562000286579182015b828111156200028557825182559160200191906001019062000268565b5b50905062000295919062000299565b5090565b620002be91905b80821115620002ba576000816000905550600101620002a0565b5090565b90565b61285580620002d16000396000f3fe6080604052600436106101095760003560e01c80636409758e116100955780638161b1ee116100645780638161b1ee146106e457806383ca1d7d1461074d57806384dd223114610792578063cd905dff1461079c578063edff9035146107cb57610109565b80636409758e146104cc5780636618966e1461052a57806368646a32146105a257806369f29c511461069357610109565b8063110466ed116100dc578063110466ed146103375780631537b7e0146103745780632c388d5d146103e75780633ccd30c2146104385780634929d0811461046357610109565b8063010c5c9714610113578063059661221461017c578063061ad59e1461024957806308314f9914610284575b610111610806565b005b34801561011f57600080fd5b506101626004803603602081101561013657600080fd5b81019080803573ffffffffffffffffffffffffffffffffffffffff169060200190929190505050610b31565b604051808215151515815260200191505060405180910390f35b610247600480360360a081101561019257600080fd5b81019080803573ffffffffffffffffffffffffffffffffffffffff169060200190929190803573ffffffffffffffffffffffffffffffffffffffff169060200190929190803590602001906401000000008111156101ef57600080fd5b82018360208201111561020157600080fd5b8035906020019184600183028401116401000000008311171561022357600080fd5b90919293919293908035906020019092919080359060200190929190505050610bf5565b005b34801561025557600080fd5b506102826004803603602081101561026c57600080fd5b8101908080359060200190929190505050610f84565b005b34801561029057600080fd5b50610335600480360360608110156102a757600080fd5b81019080803573ffffffffffffffffffffffffffffffffffffffff169060200190929190803590602001906401000000008111156102e457600080fd5b8201836020820111156102f657600080fd5b8035906020019184600183028401116401000000008311171561031857600080fd5b9091929391929390803560ff1690602001909291905050506110b5565b005b34801561034357600080fd5b506103726004803603602081101561035a57600080fd5b81019080803515159060200190929190505050611218565b005b34801561038057600080fd5b506103c36004803603602081101561039757600080fd5b81019080803573ffffffffffffffffffffffffffffffffffffffff1690602001909291905050506112f7565b604051808260038111156103d357fe5b60ff16815260200191505060405180910390f35b3480156103f357600080fd5b506104366004803603602081101561040a57600080fd5b81019080803573ffffffffffffffffffffffffffffffffffffffff16906020019092919050505061145d565b005b34801561044457600080fd5b5061044d6115de565b6040518082815260200191505060405180910390f35b34801561046f57600080fd5b506104b26004803603602081101561048657600080fd5b81019080803573ffffffffffffffffffffffffffffffffffffffff1690602001909291905050506116f5565b604051808215151515815260200191505060405180910390f35b3480156104d857600080fd5b50610528600480360360408110156104ef57600080fd5b81019080803573ffffffffffffffffffffffffffffffffffffffff169060200190929190803560ff1690602001909291905050506117af565b005b34801561053657600080fd5b506105856004803603604081101561054d57600080fd5b81019080803573ffffffffffffffffffffffffffffffffffffffff169060200190929190803515159060200190929190505050611924565b604051808381526020018281526020019250505060405180910390f35b3480156105ae57600080fd5b506105f1600480360360208110156105c557600080fd5b81019080803573ffffffffffffffffffffffffffffffffffffffff169060200190929190505050611bdb565b604051808060200185815260200184600381111561060b57fe5b60ff16815260200183151515158152602001828103825286818151815260200191508051906020019080838360005b8381101561065557808201518184015260208101905061063a565b50505050905090810190601f1680156106825780820380516001836020036101000a031916815260200191505b509550505050505060405180910390f35b34801561069f57600080fd5b506106e2600480360360208110156106b657600080fd5b81019080803573ffffffffffffffffffffffffffffffffffffffff169060200190929190505050611d62565b005b3480156106f057600080fd5b506107336004803603602081101561070757600080fd5b81019080803573ffffffffffffffffffffffffffffffffffffffff169060200190929190505050611ee3565b604051808215151515815260200191505060405180910390f35b34801561075957600080fd5b506107906004803603604081101561077057600080fd5b810190808035906020019092919080359060200190929190505050612061565b005b61079a610806565b005b3480156107a857600080fd5b506107b1612273565b604051808215151515815260200191505060405180910390f35b3480156107d757600080fd5b50610804600480360360208110156107ee57600080fd5b8101908080359060200190929190505050612289565b005b600060149054906101000a900460ff1661086b576040517f08c379a00000000000000000000000000000000000000000000000000000000081526004018080602001828103825260258152602001806127fc6025913960400191505060405180910390fd5b60011515600160003373ffffffffffffffffffffffffffffffffffffffff1673ffffffffffffffffffffffffffffffffffffffff16815260200190815260200160002060009054906101000a900460ff16151514610914576040517f08c379a00000000000000000000000000000000000000000000000000000000081526004018080602001828103825260378152602001806127c56037913960400191505060405180910390fd5b7f3593636c072a311f618cee5c048d467399a59749c339a41cf5ea8a86e4d8c4c23334604051808373ffffffffffffffffffffffffffffffffffffffff1673ffffffffffffffffffffffffffffffffffffffff1681526020018281526020019250505060405180910390a134600560003373ffffffffffffffffffffffffffffffffffffffff1673ffffffffffffffffffffffffffffffffffffffff1681526020019081526020016000206001015401600560003373ffffffffffffffffffffffffffffffffffffffff1673ffffffffffffffffffffffffffffffffffffffff16815260200190815260200160002060010181905550600454600560003373ffffffffffffffffffffffffffffffffffffffff1673ffffffffffffffffffffffffffffffffffffffff1681526020019081526020016000206001015410610b2f576003600560003373ffffffffffffffffffffffffffffffffffffffff1673ffffffffffffffffffffffffffffffffffffffff16815260200190815260200160002060020160006101000a81548160ff02191690836003811115610ab457fe5b02179055506003600081548092919060010191905055507f960871e696525db0c017d84f98f9ee43c9a3a5b20a4a752c4ea2b2590d6599c633604051808273ffffffffffffffffffffffffffffffffffffffff1673ffffffffffffffffffffffffffffffffffffffff16815260200191505060405180910390a15b565b60008060149054906101000a900460ff16610b97576040517f08c379a00000000000000000000000000000000000000000000000000000000081526004018080602001828103825260258152602001806127fc6025913960400191505060405180910390fd5b60011515600560008473ffffffffffffffffffffffffffffffffffffffff1673ffffffffffffffffffffffffffffffffffffffff16815260200190815260200160002060050160009054906101000a900460ff161515149050919050565b600060149054906101000a900460ff16610c5a576040517f08c379a00000000000000000000000000000000000000000000000000000000081526004018080602001828103825260258152602001806127fc6025913960400191505060405180910390fd5b60011515600160003373ffffffffffffffffffffffffffffffffffffffff1673ffffffffffffffffffffffffffffffffffffffff16815260200190815260200160002060009054906101000a900460ff16151514610d03576040517f08c379a00000000000000000000000000000000000000000000000000000000081526004018080602001828103825260378152602001806127c56037913960400191505060405180910390fd5b6000610d548786868080601f016020809104026020016040519081016040528093929190818152602001838380828437600081840152601f19601f8201169050808301925050505050505085612437565b90506000610d6288836124f3565b9050600115156007600083815260200190815260200160002060030160009054906101000a900460ff16151514610de4576040517f08c379a000000000000000000000000000000000000000000000000000000000815260040180806020018281038252603a81526020018061278b603a913960400191505060405180910390fd5b600660008381526020019081526020016000208190806001815401808255809150509060018203906000526020600020016000909192909190915055506040518060a001604052808973ffffffffffffffffffffffffffffffffffffffff1681526020018873ffffffffffffffffffffffffffffffffffffffff16815260200184815260200160011515815260200160006004811115610e8057fe5b8152506007600083815260200190815260200160002060008201518160000160006101000a81548173ffffffffffffffffffffffffffffffffffffffff021916908373ffffffffffffffffffffffffffffffffffffffff16021790555060208201518160010160006101000a81548173ffffffffffffffffffffffffffffffffffffffff021916908373ffffffffffffffffffffffffffffffffffffffff1602179055506040820151816002015560608201518160030160006101000a81548160ff02191690831515021790555060808201518160030160016101000a81548160ff02191690836004811115610f7257fe5b02179055509050505050505050505050565b600060149054906101000a900460ff16610fe9576040517f08c379a00000000000000000000000000000000000000000000000000000000081526004018080602001828103825260258152602001806127fc6025913960400191505060405180910390fd5b6000809054906101000a900473ffffffffffffffffffffffffffffffffffffffff1673ffffffffffffffffffffffffffffffffffffffff163373ffffffffffffffffffffffffffffffffffffffff16146110ab576040517f08c379a000000000000000000000000000000000000000000000000000000000815260040180806020018281038252601c8152602001807f43616c6c6572206973206e6f7420636f6e7472616374206f776e65720000000081525060200191505060405180910390fd5b8060048190555050565b600060149054906101000a900460ff1661111a576040517f08c379a00000000000000000000000000000000000000000000000000000000081526004018080602001828103825260258152602001806127fc6025913960400191505060405180910390fd5b60011515600160003373ffffffffffffffffffffffffffffffffffffffff1673ffffffffffffffffffffffffffffffffffffffff16815260200190815260200160002060009054906101000a900460ff161515146111c3576040517f08c379a00000000000000000000000000000000000000000000000000000000081526004018080602001828103825260378152602001806127c56037913960400191505060405180910390fd5b6112128484848080601f016020809104026020016040519081016040528093929190818152602001838380828437600081840152601f19601f820116905080830192505050505050508361255b565b50505050565b6000809054906101000a900473ffffffffffffffffffffffffffffffffffffffff1673ffffffffffffffffffffffffffffffffffffffff163373ffffffffffffffffffffffffffffffffffffffff16146112da576040517f08c379a000000000000000000000000000000000000000000000000000000000815260040180806020018281038252601c8152602001807f43616c6c6572206973206e6f7420636f6e7472616374206f776e65720000000081525060200191505060405180910390fd5b80600060146101000a81548160ff02191690831515021790555050565b60008060149054906101000a900460ff1661135d576040517f08c379a00000000000000000000000000000000000000000000000000000000081526004018080602001828103825260258152602001806127fc6025913960400191505060405180910390fd5b60011515600160003373ffffffffffffffffffffffffffffffffffffffff1673ffffffffffffffffffffffffffffffffffffffff16815260200190815260200160002060009054906101000a900460ff16151514611406576040517f08c379a00000000000000000000000000000000000000000000000000000000081526004018080602001828103825260378152602001806127c56037913960400191505060405180910390fd5b600560008373ffffffffffffffffffffffffffffffffffffffff1673ffffffffffffffffffffffffffffffffffffffff16815260200190815260200160002060020160009054906101000a900460ff169050919050565b600060149054906101000a900460ff166114c2576040517f08c379a00000000000000000000000000000000000000000000000000000000081526004018080602001828103825260258152602001806127fc6025913960400191505060405180910390fd5b6000809054906101000a900473ffffffffffffffffffffffffffffffffffffffff1673ffffffffffffffffffffffffffffffffffffffff163373ffffffffffffffffffffffffffffffffffffffff1614611584576040517f08c379a000000000000000000000000000000000000000000000000000000000815260040180806020018281038252601c8152602001807f43616c6c6572206973206e6f7420636f6e7472616374206f776e65720000000081525060200191505060405180910390fd5b60018060008373ffffffffffffffffffffffffffffffffffffffff1673ffffffffffffffffffffffffffffffffffffffff16815260200190815260200160002060006101000a81548160ff02191690831515021790555050565b60008060149054906101000a900460ff16611644576040517f08c379a00000000000000000000000000000000000000000000000000000000081526004018080602001828103825260258152602001806127fc6025913960400191505060405180910390fd5b60011515600160003373ffffffffffffffffffffffffffffffffffffffff1673ffffffffffffffffffffffffffffffffffffffff16815260200190815260200160002060009054906101000a900460ff161515146116ed576040517f08c379a00000000000000000000000000000000000000000000000000000000081526004018080602001828103825260378152602001806127c56037913960400191505060405180910390fd5b600354905090565b60008060149054906101000a900460ff1661175b576040517f08c379a00000000000000000000000000000000000000000000000000000000081526004018080602001828103825260258152602001806127fc6025913960400191505060405180910390fd5b600160008373ffffffffffffffffffffffffffffffffffffffff1673ffffffffffffffffffffffffffffffffffffffff16815260200190815260200160002060009054906101000a900460ff169050919050565b600060149054906101000a900460ff16611814576040517f08c379a00000000000000000000000000000000000000000000000000000000081526004018080602001828103825260258152602001806127fc6025913960400191505060405180910390fd5b60011515600160003373ffffffffffffffffffffffffffffffffffffffff1673ffffffffffffffffffffffffffffffffffffffff16815260200190815260200160002060009054906101000a900460ff161515146118bd576040517f08c379a00000000000000000000000000000000000000000000000000000000081526004018080602001828103825260378152602001806127c56037913960400191505060405180910390fd5b80600560008473ffffffffffffffffffffffffffffffffffffffff1673ffffffffffffffffffffffffffffffffffffffff16815260200190815260200160002060020160006101000a81548160ff0219169083600381111561191b57fe5b02179055505050565b600080600060149054906101000a900460ff1661198c576040517f08c379a00000000000000000000000000000000000000000000000000000000081526004018080602001828103825260258152602001806127fc6025913960400191505060405180910390fd5b60011515600160003373ffffffffffffffffffffffffffffffffffffffff1673ffffffffffffffffffffffffffffffffffffffff16815260200190815260200160002060009054906101000a900460ff16151514611a35576040517f08c379a00000000000000000000000000000000000000000000000000000000081526004018080602001828103825260378152602001806127c56037913960400191505060405180910390fd5b6001600560008673ffffffffffffffffffffffffffffffffffffffff1673ffffffffffffffffffffffffffffffffffffffff16815260200190815260200160002060030160010160018282829054906101000a900460ff160192506101000a81548160ff021916908360ff1602179055508215611b1e576001600560008673ffffffffffffffffffffffffffffffffffffffff1673ffffffffffffffffffffffffffffffffffffffff16815260200190815260200160002060030160010160008282829054906101000a900460ff160192506101000a81548160ff021916908360ff1602179055505b600560008573ffffffffffffffffffffffffffffffffffffffff1673ffffffffffffffffffffffffffffffffffffffff16815260200190815260200160002060030160010160009054906101000a900460ff16600560008673ffffffffffffffffffffffffffffffffffffffff1673ffffffffffffffffffffffffffffffffffffffff16815260200190815260200160002060030160010160019054906101000a900460ff168160ff1691508060ff169050915091509250929050565b606060008060008060149054906101000a900460ff16611c46576040517f08c379a00000000000000000000000000000000000000000000000000000000081526004018080602001828103825260258152602001806127fc6025913960400191505060405180910390fd5b6000600560008773ffffffffffffffffffffffffffffffffffffffff1673ffffffffffffffffffffffffffffffffffffffff16815260200190815260200160002090508060000181600101548260020160009054906101000a900460ff168360050160009054906101000a900460ff16838054600181600116156101000203166002900480601f016020809104026020016040519081016040528092919081815260200182805460018160011615610100020316600290048015611d4b5780601f10611d2057610100808354040283529160200191611d4b565b820191906000526020600020905b815481529060010190602001808311611d2e57829003601f168201915b505050505093509450945094509450509193509193565b600060149054906101000a900460ff16611dc7576040517f08c379a00000000000000000000000000000000000000000000000000000000081526004018080602001828103825260258152602001806127fc6025913960400191505060405180910390fd5b6000809054906101000a900473ffffffffffffffffffffffffffffffffffffffff1673ffffffffffffffffffffffffffffffffffffffff163373ffffffffffffffffffffffffffffffffffffffff1614611e89576040517f08c379a000000000000000000000000000000000000000000000000000000000815260040180806020018281038252601c8152602001807f43616c6c6572206973206e6f7420636f6e7472616374206f776e65720000000081525060200191505060405180910390fd5b60018060008373ffffffffffffffffffffffffffffffffffffffff1673ffffffffffffffffffffffffffffffffffffffff16815260200190815260200160002060006101000a81548160ff02191690831515021790555050565b60008060149054906101000a900460ff16611f49576040517f08c379a00000000000000000000000000000000000000000000000000000000081526004018080602001828103825260258152602001806127fc6025913960400191505060405180910390fd5b60011515600160003373ffffffffffffffffffffffffffffffffffffffff1673ffffffffffffffffffffffffffffffffffffffff16815260200190815260200160002060009054906101000a900460ff16151514611ff2576040517f08c379a00000000000000000000000000000000000000000000000000000000081526004018080602001828103825260378152602001806127c56037913960400191505060405180910390fd5b600380811115611ffe57fe5b600560008473ffffffffffffffffffffffffffffffffffffffff1673ffffffffffffffffffffffffffffffffffffffff16815260200190815260200160002060020160009054906101000a900460ff16600381111561205957fe5b149050919050565b600060149054906101000a900460ff166120c6576040517f08c379a00000000000000000000000000000000000000000000000000000000081526004018080602001828103825260258152602001806127fc6025913960400191505060405180910390fd5b60011515600160003373ffffffffffffffffffffffffffffffffffffffff1673ffffffffffffffffffffffffffffffffffffffff16815260200190815260200160002060009054906101000a900460ff1615151461216f576040517f08c379a00000000000000000000000000000000000000000000000000000000081526004018080602001828103825260378152602001806127c56037913960400191505060405180910390fd5b600060066000848152602001908152602001600020905060008090505b818054905081101561226d576000600760008484815481106121aa57fe5b906000526020600020015481526020019081526020016000209050600060048111156121d257fe5b8160030160019054906101000a900460ff1660048111156121ef57fe5b14156122385761220c8482600201546126b190919063ffffffff16565b5060038160030160016101000a81548160ff0219169083600481111561222e57fe5b021790555061225f565b60028160030160016101000a81548160ff0219169083600481111561225957fe5b02179055505b50808060010191505061218c565b50505050565b60008060149054906101000a900460ff16905090565b600060149054906101000a900460ff166122ee576040517f08c379a00000000000000000000000000000000000000000000000000000000081526004018080602001828103825260258152602001806127fc6025913960400191505060405180910390fd5b60011515600160003373ffffffffffffffffffffffffffffffffffffffff1673ffffffffffffffffffffffffffffffffffffffff16815260200190815260200160002060009054906101000a900460ff16151514612397576040517f08c379a00000000000000000000000000000000000000000000000000000000081526004018080602001828103825260378152602001806127c56037913960400191505060405180910390fd5b600060076000838152602001908152602001600020905060008160000160009054906101000a900473ffffffffffffffffffffffffffffffffffffffff169050600082600201549050600083600201819055508173ffffffffffffffffffffffffffffffffffffffff166108fc829081150290604051600060405180830381858888f19350505050158015612430573d6000803e3d6000fd5b5050505050565b6000838383604051602001808473ffffffffffffffffffffffffffffffffffffffff1673ffffffffffffffffffffffffffffffffffffffff1660601b815260140183805190602001908083835b602083106124a75780518252602082019150602081019050602083039250612484565b6001836020036101000a03801982511681845116808217855250505050505090500182815260200193505050506040516020818303038152906040528051906020012090509392505050565b60008282604051602001808373ffffffffffffffffffffffffffffffffffffffff1673ffffffffffffffffffffffffffffffffffffffff1660601b81526014018281526020019250505060405160208183030381529060405280519060200120905092915050565b6040518060a001604052808381526020016000815260200182600381111561257f57fe5b81526020016040518060400160405280600060ff168152602001600060ff16815250815260200160011515815250600560008573ffffffffffffffffffffffffffffffffffffffff1673ffffffffffffffffffffffffffffffffffffffff16815260200190815260200160002060008201518160000190805190602001906126089291906126e5565b506020820151816001015560408201518160020160006101000a81548160ff0219169083600381111561263757fe5b021790555060608201518160030160008201518160010160006101000a81548160ff021916908360ff16021790555060208201518160010160016101000a81548160ff021916908360ff160217905550505060808201518160050160006101000a81548160ff021916908315150217905550905050505050565b6000808314156126c457600090506126df565b8183029050818382816126d357fe5b04146126db57fe5b8090505b92915050565b828054600181600116156101000203166002900490600052602060002090601f016020900481019282601f1061272657805160ff1916838001178555612754565b82800160010185558215612754579182015b82811115612753578251825591602001919060010190612738565b5b5090506127619190612765565b5090565b61278791905b8082111561278357600081600090555060010161276b565b5090565b9056fe50617373656e6765722068617320616c72656164792070757263686173656420696e737572616e636520666f72207468697320666c696768742e436f6e74726163742043616c6c6572206973206e6f7420617574686f72697a656420746f2063616c6c20746869732066756e6374696f6e436f6e74726163742069732063757272656e746c79206e6f74206f7065726174696f6e616ca265627a7a72315820409a201f1644bc1dbf854a09e2d3a496bb06fd22d9ebc1cf5ff7a4df1e25278164736f6c63430005100032",
  "source": "pragma solidity ^0.5.0;\n\nimport \"../node_modules/openzeppelin-solidity/contracts/math/SafeMath.sol\";\n\ncontract FlightSuretyData {\n    using SafeMath for uint256;\n\n    /********************************************************************************************/\n    /*                                       DATA VARIABLES                                     */\n    /********************************************************************************************/\n\n    // Account used to deploy contract\n    address private contractOwner;\n\n    // Blocks all state changes throughout the contract if false\n    bool private operational = true;\n\n    // Addresses that can call this contract\n    mapping(address => bool) private  authorizedContractCaller;\n\n\n    // fund balance\n    uint256 fundBalance = 0;\n\n    // Airline information\n    enum AirlineState {\n        VotesRequired,\n        Registered,\n        DeniedRegistration,\n        Funded\n    }\n\n    struct Airline {\n        string name;\n        uint registerAmount;\n        AirlineState airlineState;\n        Vote vote;\n        bool isValue;\n    }\n\n    struct Vote {\n        mapping(address => bool) votes;\n        uint8 yesTotal;\n        uint8 total;\n    }\n\n    enum InsuranceState {\n        Purchased,\n        Active,\n        Expired,\n        PayoutAvailable,\n        PayoutDisbursed\n    }\n\n    struct Insurance {\n        address buyer;\n        address airline;\n        uint value;\n        bool isValue;\n        InsuranceState insuranceState;\n    }\n\n    // member airline count\n    uint memberAirlineCount = 0;\n\n    // airline registration fee\n    uint256 airlineRegistrationFee;\n\n    mapping (address => Airline) private airlines;\n    mapping (bytes32 =>  bytes32[]) private flightInsurances;\n    mapping (bytes32 => Insurance) private passengerInsurances;\n    /********************************************************************************************/\n    /*                                       EVENT DEFINITIONS                                  */\n    /********************************************************************************************/\n    event AirlinePayedFund(address airlineAddress, uint amount);\n    event AirlineMembershipActived(address airlineAddress);\n\n    /**\n    * @dev Constructor\n    *      The deploying account becomes contractOwner\n    */\n    constructor() public payable\n    {\n        contractOwner = msg.sender;\n\n        // Register airline\n             setAirline(\n            msg.sender,\n            \"American Flyer\", AirlineState.Funded\n        );\n    }\n\n    /********************************************************************************************/\n    /*                                       FUNCTION MODIFIERS                                 */\n    /********************************************************************************************/\n\n    // Modifiers help avoid duplication of code. They are typically used to validate something\n    // before a function is allowed to be executed.\n\n    /**\n    * @dev Modifier that requires the \"operational\" boolean variable to be \"true\"\n    *      This is used on all state changing functions to pause the contract in\n    *      the event there is an issue that needs to be fixed\n    */\n    modifier requireIsOperational()\n    {\n        require(operational, \"Contract is currently not operational\");\n        _;  // All modifiers require an \"_\" which indicates where the function body will be added\n    }\n\n    /**\n    * @dev Modifier that requires the \"ContractOwner\" account to be the function caller\n    */\n    modifier requireContractOwner()\n    {\n        require(msg.sender == contractOwner, \"Caller is not contract owner\");\n        _;\n    }\n\n    /**\n    * @dev Modifier that requires the contract caller is authorized to call function\n    */\n    modifier requireCallerAuthorized\n    {\n        require(authorizedContractCaller[msg.sender] == true, \"Contract Caller is not authorized to call this function\");\n        _;\n    }\n\n    /********************************************************************************************/\n    /*                                       UTILITY FUNCTIONS                                  */\n    /********************************************************************************************/\n\n    /**\n    * @dev Get operating status of contract\n    *\n    * @return A bool that is the current operating status\n    */\n    function isOperational()\n                            public\n                            view\n                            returns(bool)\n    {\n        return operational;\n    }\n\n\n    /**\n    * @dev Sets contract operations on/off\n    *\n    * When operational mode is disabled, all write transactions except for this one will fail\n    */\n    function setOperatingStatus(bool mode)\n                            external\n                            requireContractOwner\n    {\n        operational = mode;\n    }\n\n   /**\n    * @dev Set Authorized Contract Caller\n    * @param  contractCaller is an Ethereum contract address\n    * When contract caller is authorized, then it will have access to designated methods\n    */\n    function authorizeCaller(address contractCaller)\n                            external\n                            requireIsOperational\n                            requireContractOwner\n    {\n        authorizedContractCaller[contractCaller] = true;\n    }\n\n    /**\n    * @dev Set Authorized Contract Caller\n    * @param  contractAddress is an Ethereum contract address\n    * @return Boolean authorized return true, otherwise return false\n    * When contract caller is authorized, then it will have access to designated methods\n    */\n    function isCallerAuthorized(address contractAddress)\n        external\n        view\n        requireIsOperational\n        returns(bool)\n    {\n        return authorizedContractCaller[contractAddress];\n    }\n\n    function isAirlineRegistered(address airlineAddress)\n        external\n        view\n        requireIsOperational\n        returns(bool)\n    {\n        return airlines[airlineAddress].isValue == true;\n    }\n    /********************************************************************************************/\n    /*                                     SMART CONTRACT FUNCTIONS                             */\n    /********************************************************************************************/\n\n    function registerAirline(address airlineAddress, string calldata airlineName, AirlineState airlineStatus)\n        external\n        requireIsOperational\n        requireCallerAuthorized\n    {\n            setAirline(\n            airlineAddress,\n            airlineName, airlineStatus\n        );\n    }\n\n    /**\n    * @dev Set Airline Registration Cost\n    *\n    * Have the contract owner set the cost of the airline registration\n    */\n    function setAirlineRegistrationFee(uint256 registrationFee)\n        external\n        requireIsOperational\n        requireContractOwner\n    {\n        airlineRegistrationFee = registrationFee;\n    }\n\n   function setAuthorizedAddress(address contractCallerAddress)\n                            external\n                            requireIsOperational\n                            requireContractOwner\n    {\n        authorizedContractCaller[contractCallerAddress] = true;\n    }\n\n    function airlinePayFund()\n        public\n        payable\n        requireIsOperational\n        requireCallerAuthorized\n    {\n        emit AirlinePayedFund(msg.sender, msg.value);\n        airlines[msg.sender].registerAmount = airlines[msg.sender].registerAmount + msg.value;\n\n       if (airlines[msg.sender].registerAmount >= airlineRegistrationFee) {\n            airlines[msg.sender].airlineState = AirlineState.Funded;\n            memberAirlineCount++;\n            emit AirlineMembershipActived(msg.sender);\n        }\n    }\n\n    function isAirlineMember(address airlineAddress)\n        external\n        view\n        requireIsOperational\n        requireCallerAuthorized\n        returns (bool)\n    {\n        return airlines[airlineAddress].airlineState == AirlineState.Funded;\n    }\n\n    function setAirlineState(address airlineAddress, AirlineState airlineState)\n        external\n        requireIsOperational\n        requireCallerAuthorized\n    {\n        airlines[airlineAddress].airlineState = airlineState;\n    }\n\n    function getAirlineState(address airlineAddress)\n        external\n        view\n        requireIsOperational\n        requireCallerAuthorized\n        returns (AirlineState)\n    {\n        return airlines[airlineAddress].airlineState;\n    }\n\n    function airlineMemberCount()\n        external\n        view\n        requireIsOperational\n        requireCallerAuthorized\n        returns (uint)\n    {\n        return memberAirlineCount;\n    }\n\nfunction setAirline\n    (\n        address airlineAddress,\n        string memory airlineName,\n        AirlineState airlineStatus\n    )\n        private\n    {\n        airlines[airlineAddress] = Airline({name: airlineName, registerAmount: 0, airlineState: airlineStatus, vote: Vote(0, 0), isValue: true});\n\n    }\n\n    function airlineInfo(address airlineAddress)\n        external\n        view\n        requireIsOperational\n        returns (\n            string memory name,\n            uint registerAmount,\n            AirlineState airlineState,\n            bool isValue\n        )\n    {\n        Airline storage airline = airlines[airlineAddress];\n        return(\n            airline.name,\n            airline.registerAmount,\n            airline.airlineState,\n            airline.isValue\n        );\n    }\n\n    function voteOnAirline(address airlineAddress, bool vote)\n        external\n        requireIsOperational\n        requireCallerAuthorized\n        returns (uint, uint)\n    {\n        airlines[airlineAddress].vote.total += 1;\n\n        if (vote) {\n            airlines[airlineAddress].vote.yesTotal += 1;\n        }\n\n        return (airlines[airlineAddress].vote.yesTotal, airlines[airlineAddress].vote.total);\n    }\n\n   /**\n    * @dev Buy insurance for a flight\n    *\n    */\n    function buyFlightInsurance(\n                                address passengerAddress,\n                                address airlineAddress,\n                                string calldata flightName,\n                                uint256 departureTime,\n                                uint insuranceCost\n                                )\n        external\n        payable\n        requireIsOperational\n       requireCallerAuthorized\n    {\n        bytes32 flightKey = getFlightKey(passengerAddress, flightName, departureTime);\n        bytes32 insuranceKey = getInsuranceKey(passengerAddress, flightKey);\n        require(passengerInsurances[insuranceKey].isValue == true, \"Passenger has already purchased insurance for this flight.\");\n\n        flightInsurances[flightKey].push(insuranceKey);\n        passengerInsurances[insuranceKey] = Insurance({\n                                                    buyer: passengerAddress,\n                                                    airline: airlineAddress,\n                                                    value: insuranceCost,\n                                                    isValue: true,\n                                                    insuranceState: InsuranceState.Purchased});\n    }\n\n    /**\n     *  @dev Credits payouts to insurees\n    */\n    function creditInsurees(bytes32 flightKey, uint payoutRate)\n        external\n        requireIsOperational\n        requireCallerAuthorized\n    {\n        bytes32[] storage insuranceKeys = flightInsurances[flightKey];\n\n        for (uint i = 0; i < insuranceKeys.length; i++) {\n            Insurance storage insurance = passengerInsurances[insuranceKeys[i]];\n\n            if (insurance.insuranceState == InsuranceState.Purchased) {\n                insurance.value.mul(payoutRate);\n                insurance.insuranceState = InsuranceState.PayoutAvailable;\n            } else {\n                insurance.insuranceState = InsuranceState.Expired;\n            }\n        }\n    }\n\n    /**\n     *  @dev Transfers eligible payout funds to insuree\n     *\n    */\n    function payoutInsuree(bytes32 insuranceKey)\n        external\n        requireIsOperational\n        requireCallerAuthorized\n    {\n        // Retrieve insurance of the buyer\n        Insurance storage insurance = passengerInsurances[insuranceKey];\n\n        // Retrieve buy address from insurance\n        address payable buyer = address(uint160(insurance.buyer));\n        uint payoutValue = insurance.value;\n        insurance.value = 0;\n        buyer.transfer(payoutValue);\n    }\n\n    function getFlightKey\n                        (\n                            address airline,\n                            string memory flight,\n                            uint256 timestamp\n                        )\n                            internal\n                            pure\n                            returns(bytes32)\n    {\n        return keccak256(abi.encodePacked(airline, flight, timestamp));\n    }\n\n    function getInsuranceKey(address passenger, bytes32 flightKey)\n        internal\n        pure\n        returns(bytes32)\n    {\n        return keccak256(abi.encodePacked(passenger, flightKey));\n    }\n\n\n    /**\n    * @dev Fallback function for funding smart contract.\n    *\n    */\n    function()\n        external\n        payable\n    {\n        airlinePayFund();\n    }\n\n\n}\n\n",
  "sourcePath": "/Users/mariepatterson/udacity/blockchain/term2/flight-surety/contracts/FlightSuretyData.sol",
  "compiler": {
    "name": "solc",
    "version": "0.5.16+commit.9c3226ce.Emscripten.clang"
  },
  "schemaVersion": "3.0.16",
  "updatedAt": "2020-01-04T00:47:16.118Z",
  "devdoc": {
    "methods": {
      "authorizeCaller(address)": {
        "details": "Set Authorized Contract Caller",
        "params": {
          "contractCaller": "is an Ethereum contract address When contract caller is authorized, then it will have access to designated methods"
        }
      },
      "buyFlightInsurance(address,address,string,uint256,uint256)": {
        "details": "Buy insurance for a flight    "
      },
      "constructor": {
        "details": "Constructor     The deploying account becomes contractOwner"
      },
      "creditInsurees(bytes32,uint256)": {
        "details": "Credits payouts to insurees"
      },
      "isCallerAuthorized(address)": {
        "details": "Set Authorized Contract Caller",
        "params": {
          "contractAddress": "is an Ethereum contract address"
        },
        "return": "Boolean authorized return true, otherwise return false When contract caller is authorized, then it will have access to designated methods"
      },
      "isOperational()": {
        "details": "Get operating status of contract",
        "return": "A bool that is the current operating status"
      },
      "payoutInsuree(bytes32)": {
        "details": "Transfers eligible payout funds to insuree    "
      },
      "setAirlineRegistrationFee(uint256)": {
        "details": "Set Airline Registration Cost    * Have the contract owner set the cost of the airline registration"
      },
      "setOperatingStatus(bool)": {
        "details": "Sets contract operations on/off    * When operational mode is disabled, all write transactions except for this one will fail"
      }
    }
  },
  "userdoc": {
    "methods": {
      "registerAirline(address,string,uint8)": {
        "notice": "*****************************************************************************************"
      }
    }
  }
}