{
  "contractName": "FlightSuretyApp",
  "abi": [
    {
      "inputs": [
        {
          "internalType": "address payable",
          "name": "flightSuretyDataContractAddress",
          "type": "address"
        }
      ],
      "payable": false,
      "stateMutability": "nonpayable",
      "type": "constructor"
    },
    {
      "anonymous": false,
      "inputs": [
        {
          "indexed": false,
          "internalType": "address",
          "name": "airlineAddress",
          "type": "address"
        }
      ],
      "name": "AirlineDeniedRegistration",
      "type": "event"
    },
    {
      "anonymous": false,
      "inputs": [
        {
          "indexed": false,
          "internalType": "address",
          "name": "airlineAddress",
          "type": "address"
        }
      ],
      "name": "AirlineRegistered",
      "type": "event"
    },
    {
      "anonymous": false,
      "inputs": [
        {
          "indexed": false,
          "internalType": "address",
          "name": "airlineAddress",
          "type": "address"
        }
      ],
      "name": "AirlineVotesRequired",
      "type": "event"
    },
    {
      "anonymous": false,
      "inputs": [
        {
          "indexed": false,
          "internalType": "address",
          "name": "airlineAddress",
          "type": "address"
        },
        {
          "indexed": false,
          "internalType": "address",
          "name": "passengerAddress",
          "type": "address"
        },
        {
          "indexed": false,
          "internalType": "string",
          "name": "flightName",
          "type": "string"
        }
      ],
      "name": "FlightInsurancePurchased",
      "type": "event"
    },
    {
      "anonymous": false,
      "inputs": [
        {
          "indexed": false,
          "internalType": "address",
          "name": "airline",
          "type": "address"
        },
        {
          "indexed": false,
          "internalType": "string",
          "name": "flight",
          "type": "string"
        },
        {
          "indexed": false,
          "internalType": "uint256",
          "name": "timestamp",
          "type": "uint256"
        },
        {
          "indexed": false,
          "internalType": "uint8",
          "name": "status",
          "type": "uint8"
        }
      ],
      "name": "FlightStatusInfo",
      "type": "event"
    },
    {
      "anonymous": false,
      "inputs": [
        {
          "indexed": false,
          "internalType": "address",
          "name": "airline",
          "type": "address"
        },
        {
          "indexed": false,
          "internalType": "string",
          "name": "flight",
          "type": "string"
        },
        {
          "indexed": false,
          "internalType": "uint256",
          "name": "timestamp",
          "type": "uint256"
        },
        {
          "indexed": false,
          "internalType": "uint8",
          "name": "status",
          "type": "uint8"
        }
      ],
      "name": "OracleReport",
      "type": "event"
    },
    {
      "anonymous": false,
      "inputs": [
        {
          "indexed": false,
          "internalType": "uint8",
          "name": "index",
          "type": "uint8"
        },
        {
          "indexed": false,
          "internalType": "address",
          "name": "airline",
          "type": "address"
        },
        {
          "indexed": false,
          "internalType": "string",
          "name": "flight",
          "type": "string"
        },
        {
          "indexed": false,
          "internalType": "uint256",
          "name": "timestamp",
          "type": "uint256"
        }
      ],
      "name": "OracleRequest",
      "type": "event"
    },
    {
      "constant": true,
      "inputs": [],
      "name": "REGISTRATION_FEE",
      "outputs": [
        {
          "internalType": "uint256",
          "name": "",
          "type": "uint256"
        }
      ],
      "payable": false,
      "stateMutability": "view",
      "type": "function"
    },
    {
      "constant": true,
      "inputs": [],
      "name": "isOperational",
      "outputs": [
        {
          "internalType": "bool",
          "name": "",
          "type": "bool"
        }
      ],
      "payable": false,
      "stateMutability": "pure",
      "type": "function"
    },
    {
      "constant": true,
      "inputs": [
        {
          "internalType": "address",
          "name": "airlineAddress",
          "type": "address"
        }
      ],
      "name": "isAirlineMember",
      "outputs": [
        {
          "internalType": "bool",
          "name": "",
          "type": "bool"
        }
      ],
      "payable": false,
      "stateMutability": "view",
      "type": "function"
    },
    {
      "constant": false,
      "inputs": [
        {
          "internalType": "uint256",
          "name": "registrationCost",
          "type": "uint256"
        }
      ],
      "name": "setAirlineRegistrationCost",
      "outputs": [],
      "payable": false,
      "stateMutability": "nonpayable",
      "type": "function"
    },
    {
      "constant": false,
      "inputs": [
        {
          "internalType": "uint256",
          "name": "percentAmount",
          "type": "uint256"
        }
      ],
      "name": "setInsurancePercentageAmount",
      "outputs": [],
      "payable": false,
      "stateMutability": "nonpayable",
      "type": "function"
    },
    {
      "constant": true,
      "inputs": [],
      "name": "airlineRegistrationCost",
      "outputs": [
        {
          "internalType": "uint256",
          "name": "",
          "type": "uint256"
        }
      ],
      "payable": false,
      "stateMutability": "view",
      "type": "function"
    },
    {
      "constant": false,
      "inputs": [
        {
          "internalType": "address",
          "name": "contractCallerAddress",
          "type": "address"
        }
      ],
      "name": "setAuthorizedAddress",
      "outputs": [],
      "payable": false,
      "stateMutability": "nonpayable",
      "type": "function"
    },
    {
      "constant": false,
      "inputs": [
        {
          "internalType": "address",
          "name": "airlineAddress",
          "type": "address"
        },
        {
          "internalType": "string",
          "name": "airlineName",
          "type": "string"
        }
      ],
      "name": "registerAirline",
      "outputs": [
        {
          "internalType": "bool",
          "name": "success",
          "type": "bool"
        },
        {
          "internalType": "uint256",
          "name": "votes",
          "type": "uint256"
        }
      ],
      "payable": false,
      "stateMutability": "nonpayable",
      "type": "function"
    },
    {
      "constant": false,
      "inputs": [
        {
          "internalType": "address",
          "name": "airlineAddress",
          "type": "address"
        },
        {
          "internalType": "bool",
          "name": "vote",
          "type": "bool"
        }
      ],
      "name": "voteByConsensus",
      "outputs": [
        {
          "internalType": "enum FlightSuretyData.AirlineState",
          "name": "registrationState",
          "type": "uint8"
        }
      ],
      "payable": false,
      "stateMutability": "nonpayable",
      "type": "function"
    },
    {
      "constant": false,
      "inputs": [],
      "name": "fundAirlineRegistration",
      "outputs": [],
      "payable": true,
      "stateMutability": "payable",
      "type": "function"
    },
    {
      "constant": false,
      "inputs": [
        {
          "internalType": "string",
          "name": "flightName",
          "type": "string"
        },
        {
          "internalType": "uint256",
          "name": "scheduledDeparture",
          "type": "uint256"
        }
      ],
      "name": "registerFlight",
      "outputs": [],
      "payable": false,
      "stateMutability": "nonpayable",
      "type": "function"
    },
    {
      "constant": true,
      "inputs": [
        {
          "internalType": "address",
          "name": "airlineAddress",
          "type": "address"
        }
      ],
      "name": "getAirline",
      "outputs": [
        {
          "internalType": "string",
          "name": "name",
          "type": "string"
        },
        {
          "internalType": "uint256",
          "name": "registerAmount",
          "type": "uint256"
        },
        {
          "internalType": "enum FlightSuretyData.AirlineState",
          "name": "airlineState",
          "type": "uint8"
        },
        {
          "internalType": "bool",
          "name": "isValue",
          "type": "bool"
        }
      ],
      "payable": false,
      "stateMutability": "view",
      "type": "function"
    },
    {
      "constant": false,
      "inputs": [
        {
          "internalType": "address",
          "name": "airline",
          "type": "address"
        },
        {
          "internalType": "string",
          "name": "flightName",
          "type": "string"
        },
        {
          "internalType": "uint256",
          "name": "timestamp",
          "type": "uint256"
        }
      ],
      "name": "fetchFlightStatus",
      "outputs": [],
      "payable": false,
      "stateMutability": "nonpayable",
      "type": "function"
    },
    {
      "constant": false,
      "inputs": [
        {
          "internalType": "address",
          "name": "passengerAddress",
          "type": "address"
        },
        {
          "internalType": "address",
          "name": "airlineAddress",
          "type": "address"
        },
        {
          "internalType": "string",
          "name": "flightName",
          "type": "string"
        },
        {
          "internalType": "uint256",
          "name": "departureTime",
          "type": "uint256"
        },
        {
          "internalType": "uint256",
          "name": "insuranceCost",
          "type": "uint256"
        }
      ],
      "name": "purchaseFlightInsurance",
      "outputs": [],
      "payable": true,
      "stateMutability": "payable",
      "type": "function"
    },
    {
      "constant": false,
      "inputs": [],
      "name": "registerOracle",
      "outputs": [],
      "payable": true,
      "stateMutability": "payable",
      "type": "function"
    },
    {
      "constant": true,
      "inputs": [],
      "name": "getMyIndexes",
      "outputs": [
        {
          "internalType": "uint8[3]",
          "name": "",
          "type": "uint8[3]"
        }
      ],
      "payable": false,
      "stateMutability": "view",
      "type": "function"
    },
    {
      "constant": false,
      "inputs": [
        {
          "internalType": "uint8",
          "name": "index",
          "type": "uint8"
        },
        {
          "internalType": "address",
          "name": "airline",
          "type": "address"
        },
        {
          "internalType": "string",
          "name": "flight",
          "type": "string"
        },
        {
          "internalType": "uint256",
          "name": "timestamp",
          "type": "uint256"
        },
        {
          "internalType": "uint8",
          "name": "statusCode",
          "type": "uint8"
        }
      ],
      "name": "submitOracleResponse",
      "outputs": [],
      "payable": false,
      "stateMutability": "nonpayable",
      "type": "function"
    }
  ],
  "bytecode": "0x608060405260006001556000600360146101000a81548160ff021916908360ff160217905550670de0b6b3a764000060045534801561003d57600080fd5b50604051613c1f380380613c1f8339818101604052602081101561006057600080fd5b8101908080519060200190929190505050336000806101000a81548173ffffffffffffffffffffffffffffffffffffffff021916908373ffffffffffffffffffffffffffffffffffffffff16021790555080600360006101000a81548173ffffffffffffffffffffffffffffffffffffffff021916908373ffffffffffffffffffffffffffffffffffffffff16021790555050613b1d806101026000396000f3fe6080604052600436106100fe5760003560e01c806364b4f75111610095578063c10f270011610064578063c10f2700146104cc578063cd905dff14610596578063e1de0489146105c5578063ee38a749146106b6578063f83f11c0146107bd576100fe565b806364b4f751146103ac57806369f29c51146103d75780638161b1ee14610428578063820b698f14610491576100fe565b806339cfc995116100d157806339cfc995146101f257806342bdb13814610282578063572173501461034f5780635f1cc0e614610359576100fe565b80630eccd86c1461010357806328ed573b1461018257806331d047e8146101bd578063339d2590146101e8575b600080fd5b34801561010f57600080fd5b5061015e6004803603604081101561012657600080fd5b81019080803573ffffffffffffffffffffffffffffffffffffffff16906020019092919080351515906020019092919050505061086d565b6040518082600381111561016e57fe5b60ff16815260200191505060405180910390f35b34801561018e57600080fd5b506101bb600480360360208110156101a557600080fd5b8101908080359060200190929190505050610f96565b005b3480156101c957600080fd5b506101d26110b9565b6040518082815260200191505060405180910390f35b6101f06111dc565b005b3480156101fe57600080fd5b506102806004803603604081101561021557600080fd5b810190808035906020019064010000000081111561023257600080fd5b82018360208201111561024457600080fd5b8035906020019184600183028401116401000000008311171561026657600080fd5b9091929391929390803590602001909291905050506113c2565b005b61034d600480360360a081101561029857600080fd5b81019080803573ffffffffffffffffffffffffffffffffffffffff169060200190929190803573ffffffffffffffffffffffffffffffffffffffff169060200190929190803590602001906401000000008111156102f557600080fd5b82018360208201111561030757600080fd5b8035906020019184600183028401116401000000008311171561032957600080fd5b90919293919293908035906020019092919080359060200190929190505050611649565b005b61035761198f565b005b34801561036557600080fd5b5061036e611cef565b6040518082600360200280838360005b8381101561039957808201518184015260208101905061037e565b5050505090500191505060405180910390f35b3480156103b857600080fd5b506103c1611e62565b6040518082815260200191505060405180910390f35b3480156103e357600080fd5b50610426600480360360208110156103fa57600080fd5b81019080803573ffffffffffffffffffffffffffffffffffffffff169060200190929190505050611e68565b005b34801561043457600080fd5b506104776004803603602081101561044b57600080fd5b81019080803573ffffffffffffffffffffffffffffffffffffffff16906020019092919050505061203d565b604051808215151515815260200191505060405180910390f35b34801561049d57600080fd5b506104ca600480360360208110156104b457600080fd5b81019080803590602001909291905050506122ad565b005b3480156104d857600080fd5b50610594600480360360a08110156104ef57600080fd5b81019080803560ff169060200190929190803573ffffffffffffffffffffffffffffffffffffffff1690602001909291908035906020019064010000000081111561053957600080fd5b82018360208201111561054b57600080fd5b8035906020019184600183028401116401000000008311171561056d57600080fd5b909192939192939080359060200190929190803560ff1690602001909291905050506123d0565b005b3480156105a257600080fd5b506105ab6128f1565b604051808215151515815260200191505060405180910390f35b3480156105d157600080fd5b50610614600480360360208110156105e857600080fd5b81019080803573ffffffffffffffffffffffffffffffffffffffff1690602001909291905050506128fa565b604051808060200185815260200184600381111561062e57fe5b60ff16815260200183151515158152602001828103825286818151815260200191508051906020019080838360005b8381101561067857808201518184015260208101905061065d565b50505050905090810190601f1680156106a55780820380516001836020036101000a031916815260200191505b509550505050505060405180910390f35b3480156106c257600080fd5b5061079c600480360360408110156106d957600080fd5b81019080803573ffffffffffffffffffffffffffffffffffffffff1690602001909291908035906020019064010000000081111561071657600080fd5b82018360208201111561072857600080fd5b8035906020019184600183028401116401000000008311171561074a57600080fd5b91908080601f016020809104026020016040519081016040528093929190818152602001838380828437600081840152601f19601f820116905080830192505050505050509192919290505050612b20565b60405180831515151581526020018281526020019250505060405180910390f35b3480156107c957600080fd5b5061086b600480360360608110156107e057600080fd5b81019080803573ffffffffffffffffffffffffffffffffffffffff1690602001909291908035906020019064010000000081111561081d57600080fd5b82018360208201111561082f57600080fd5b8035906020019184600183028401116401000000008311171561085157600080fd5b9091929391929390803590602001909291905050506131e0565b005b600060016108c6576040517f08c379a0000000000000000000000000000000000000000000000000000000008152600401808060200182810382526025815260200180613aa16025913960400191505060405180910390fd5b60011515600360009054906101000a900473ffffffffffffffffffffffffffffffffffffffff1673ffffffffffffffffffffffffffffffffffffffff16634929d081336040518263ffffffff1660e01b8152600401808273ffffffffffffffffffffffffffffffffffffffff1673ffffffffffffffffffffffffffffffffffffffff16815260200191505060206040518083038186803b15801561096957600080fd5b505afa15801561097d573d6000803e3d6000fd5b505050506040513d602081101561099357600080fd5b81019080805190602001909291905050501515146109fc576040517f08c379a0000000000000000000000000000000000000000000000000000000008152600401808060200182810382526037815260200180613a2e6037913960400191505060405180910390fd5b82600360009054906101000a900473ffffffffffffffffffffffffffffffffffffffff1673ffffffffffffffffffffffffffffffffffffffff1663010c5c97826040518263ffffffff1660e01b8152600401808273ffffffffffffffffffffffffffffffffffffffff1673ffffffffffffffffffffffffffffffffffffffff16815260200191505060206040518083038186803b158015610a9c57600080fd5b505afa158015610ab0573d6000803e3d6000fd5b505050506040513d6020811015610ac657600080fd5b8101908080519060200190929190505050610b49576040517f08c379a000000000000000000000000000000000000000000000000000000000815260040180806020018281038252601e8152602001807f4169726c696e652068617320616c72656164792072656769737465726564000081525060200191505060405180910390fd5b6000600360009054906101000a900473ffffffffffffffffffffffffffffffffffffffff1673ffffffffffffffffffffffffffffffffffffffff16633ccd30c26040518163ffffffff1660e01b815260040160206040518083038186803b158015610bb357600080fd5b505afa158015610bc7573d6000803e3d6000fd5b505050506040513d6020811015610bdd57600080fd5b810190808051906020019092919050505090506000606460015481610bfe57fe5b048281610c0757fe5b049050600080600360009054906101000a900473ffffffffffffffffffffffffffffffffffffffff1673ffffffffffffffffffffffffffffffffffffffff16636618966e89896040518363ffffffff1660e01b8152600401808373ffffffffffffffffffffffffffffffffffffffff1673ffffffffffffffffffffffffffffffffffffffff16815260200182151515158152602001925050506040805180830381600087803b158015610cb957600080fd5b505af1158015610ccd573d6000803e3d6000fd5b505050506040513d6040811015610ce357600080fd5b81019080805190602001909291908051906020019092919050505091509150828210610e4157600360009054906101000a900473ffffffffffffffffffffffffffffffffffffffff1673ffffffffffffffffffffffffffffffffffffffff16636409758e8960016040518363ffffffff1660e01b8152600401808373ffffffffffffffffffffffffffffffffffffffff1673ffffffffffffffffffffffffffffffffffffffff168152602001826003811115610d9b57fe5b60ff16815260200192505050600060405180830381600087803b158015610dc157600080fd5b505af1158015610dd5573d6000803e3d6000fd5b505050507f89a6354fb229eda6cbc28306798727b4d524818d2c375220bc3f360f24cffaca88604051808273ffffffffffffffffffffffffffffffffffffffff1673ffffffffffffffffffffffffffffffffffffffff16815260200191505060405180910390a1610f88565b60008185039050828403811015610f8657600360009054906101000a900473ffffffffffffffffffffffffffffffffffffffff1673ffffffffffffffffffffffffffffffffffffffff16636409758e8a60026040518363ffffffff1660e01b8152600401808373ffffffffffffffffffffffffffffffffffffffff1673ffffffffffffffffffffffffffffffffffffffff168152602001826003811115610ee457fe5b60ff16815260200192505050600060405180830381600087803b158015610f0a57600080fd5b505af1158015610f1e573d6000803e3d6000fd5b505050507f92d2df9d64f905db1e1c3a60009e3b6dd649d1c79200d5382a450a621a88f20789604051808273ffffffffffffffffffffffffffffffffffffffff1673ffffffffffffffffffffffffffffffffffffffff16815260200191505060405180910390a15b505b859550505050505092915050565b6001610fed576040517f08c379a0000000000000000000000000000000000000000000000000000000008152600401808060200182810382526025815260200180613aa16025913960400191505060405180910390fd5b6000809054906101000a900473ffffffffffffffffffffffffffffffffffffffff1673ffffffffffffffffffffffffffffffffffffffff163373ffffffffffffffffffffffffffffffffffffffff16146110af576040517f08c379a000000000000000000000000000000000000000000000000000000000815260040180806020018281038252601c8152602001807f43616c6c6572206973206e6f7420636f6e7472616374206f776e65720000000081525060200191505060405180910390fd5b8060048190555050565b60006001611112576040517f08c379a0000000000000000000000000000000000000000000000000000000008152600401808060200182810382526025815260200180613aa16025913960400191505060405180910390fd5b6000809054906101000a900473ffffffffffffffffffffffffffffffffffffffff1673ffffffffffffffffffffffffffffffffffffffff163373ffffffffffffffffffffffffffffffffffffffff16146111d4576040517f08c379a000000000000000000000000000000000000000000000000000000000815260040180806020018281038252601c8152602001807f43616c6c6572206973206e6f7420636f6e7472616374206f776e65720000000081525060200191505060405180910390fd5b600454905090565b6001611233576040517f08c379a0000000000000000000000000000000000000000000000000000000008152600401808060200182810382526025815260200180613aa16025913960400191505060405180910390fd5b6004543410156112ab576040517f08c379a000000000000000000000000000000000000000000000000000000000815260040180806020018281038252601c8152602001807f526567697374726174696f6e206665652069732072657175697265640000000081525060200191505060405180910390fd5b6112b361384b565b6112bc33613428565b90506000600360009054906101000a900473ffffffffffffffffffffffffffffffffffffffff1690508073ffffffffffffffffffffffffffffffffffffffff166108fc349081150290604051600060405180830381858888f1935050505015801561132b573d6000803e3d6000fd5b50604051806040016040528060011515815260200183815250600560003373ffffffffffffffffffffffffffffffffffffffff1673ffffffffffffffffffffffffffffffffffffffff16815260200190815260200160002060008201518160000160006101000a81548160ff0219169083151502179055506020820151816001019060036113ba92919061386d565b509050505050565b6001611419576040517f08c379a0000000000000000000000000000000000000000000000000000000008152600401808060200182810382526025815260200180613aa16025913960400191505060405180910390fd5b600061146a3385858080601f016020809104026020016040519081016040528093929190818152602001838380828437600081840152601f19601f82011690508083019250505050505050846135b4565b90506002600082815260200190815260200160002060030160009054906101000a900460ff16156114e6576040517f08c379a0000000000000000000000000000000000000000000000000000000008152600401808060200182810382526022815260200180613a0c6022913960400191505060405180910390fd5b6040518060c001604052803373ffffffffffffffffffffffffffffffffffffffff16815260200185858080601f016020809104026020016040519081016040528093929190818152602001838380828437600081840152601f19601f820116905080830192505050505050508152602001838152602001600115158152602001600060ff168152602001428152506002600083815260200190815260200160002060008201518160000160006101000a81548173ffffffffffffffffffffffffffffffffffffffff021916908373ffffffffffffffffffffffffffffffffffffffff16021790555060208201518160010190805190602001906115ea929190613907565b506040820151816002015560608201518160030160006101000a81548160ff02191690831515021790555060808201518160030160016101000a81548160ff021916908360ff16021790555060a0820151816004015590505050505050565b60016116a0576040517f08c379a0000000000000000000000000000000000000000000000000000000008152600401808060200182810382526025815260200180613aa16025913960400191505060405180910390fd5b60006116f18686868080601f016020809104026020016040519081016040528093929190818152602001838380828437600081840152601f19601f82011690508083019250505050505050856135b4565b90506002600082815260200190815260200160002060030160009054906101000a900460ff16611789576040517f08c379a000000000000000000000000000000000000000000000000000000000815260040180806020018281038252601e8152602001807f466c6967687420686173206e6f74206265656e2072656769737465726564000081525060200191505060405180910390fd5b600360009054906101000a900473ffffffffffffffffffffffffffffffffffffffff1673ffffffffffffffffffffffffffffffffffffffff166305966122348989898989896040518863ffffffff1660e01b8152600401808773ffffffffffffffffffffffffffffffffffffffff1673ffffffffffffffffffffffffffffffffffffffff1681526020018673ffffffffffffffffffffffffffffffffffffffff1673ffffffffffffffffffffffffffffffffffffffff168152602001806020018481526020018381526020018281038252868682818152602001925080828437600081840152601f19601f8201169050808301925050509750505050505050506000604051808303818588803b1580156118a257600080fd5b505af11580156118b6573d6000803e3d6000fd5b50505050507fee02f4438f3b731b3f98dd1546cbe381ff21a6d38b064a05b139c5f2684bd69486888787604051808573ffffffffffffffffffffffffffffffffffffffff1673ffffffffffffffffffffffffffffffffffffffff1681526020018473ffffffffffffffffffffffffffffffffffffffff1673ffffffffffffffffffffffffffffffffffffffff168152602001806020018281038252848482818152602001925080828437600081840152601f19601f8201169050808301925050509550505050505060405180910390a150505050505050565b60016119e6576040517f08c379a0000000000000000000000000000000000000000000000000000000008152600401808060200182810382526025815260200180613aa16025913960400191505060405180910390fd5b60011515600360009054906101000a900473ffffffffffffffffffffffffffffffffffffffff1673ffffffffffffffffffffffffffffffffffffffff16634929d081336040518263ffffffff1660e01b8152600401808273ffffffffffffffffffffffffffffffffffffffff1673ffffffffffffffffffffffffffffffffffffffff16815260200191505060206040518083038186803b158015611a8957600080fd5b505afa158015611a9d573d6000803e3d6000fd5b505050506040513d6020811015611ab357600080fd5b8101908080519060200190929190505050151514611b1c576040517f08c379a0000000000000000000000000000000000000000000000000000000008152600401808060200182810382526037815260200180613a2e6037913960400191505060405180910390fd5b33600360009054906101000a900473ffffffffffffffffffffffffffffffffffffffff1673ffffffffffffffffffffffffffffffffffffffff1663010c5c97826040518263ffffffff1660e01b8152600401808273ffffffffffffffffffffffffffffffffffffffff1673ffffffffffffffffffffffffffffffffffffffff16815260200191505060206040518083038186803b158015611bbc57600080fd5b505afa158015611bd0573d6000803e3d6000fd5b505050506040513d6020811015611be657600080fd5b8101908080519060200190929190505050611c69576040517f08c379a000000000000000000000000000000000000000000000000000000000815260040180806020018281038252601e8152602001807f4169726c696e652068617320616c72656164792072656769737465726564000081525060200191505060405180910390fd5b600360009054906101000a900473ffffffffffffffffffffffffffffffffffffffff1673ffffffffffffffffffffffffffffffffffffffff166384dd2231346040518263ffffffff1660e01b81526004016000604051808303818588803b158015611cd357600080fd5b505af1158015611ce7573d6000803e3d6000fd5b505050505050565b611cf761384b565b600560003373ffffffffffffffffffffffffffffffffffffffff1673ffffffffffffffffffffffffffffffffffffffff16815260200190815260200160002060000160009054906101000a900460ff16611db9576040517f08c379a000000000000000000000000000000000000000000000000000000000815260040180806020018281038252601b8152602001807f4e6f74207265676973746572656420617320616e206f7261636c65000000000081525060200191505060405180910390fd5b600560003373ffffffffffffffffffffffffffffffffffffffff1673ffffffffffffffffffffffffffffffffffffffff168152602001908152602001600020600101600380602002604051908101604052809291908260038015611e58576020028201916000905b82829054906101000a900460ff1660ff1681526020019060010190602082600001049283019260010382029150808411611e215790505b5050505050905090565b60045481565b6001611ebf576040517f08c379a0000000000000000000000000000000000000000000000000000000008152600401808060200182810382526025815260200180613aa16025913960400191505060405180910390fd5b6000809054906101000a900473ffffffffffffffffffffffffffffffffffffffff1673ffffffffffffffffffffffffffffffffffffffff163373ffffffffffffffffffffffffffffffffffffffff1614611f81576040517f08c379a000000000000000000000000000000000000000000000000000000000815260040180806020018281038252601c8152602001807f43616c6c6572206973206e6f7420636f6e7472616374206f776e65720000000081525060200191505060405180910390fd5b600360009054906101000a900473ffffffffffffffffffffffffffffffffffffffff1673ffffffffffffffffffffffffffffffffffffffff166369f29c51826040518263ffffffff1660e01b8152600401808273ffffffffffffffffffffffffffffffffffffffff1673ffffffffffffffffffffffffffffffffffffffff168152602001915050600060405180830381600087803b15801561202257600080fd5b505af1158015612036573d6000803e3d6000fd5b5050505050565b60006001612096576040517f08c379a0000000000000000000000000000000000000000000000000000000008152600401808060200182810382526025815260200180613aa16025913960400191505060405180910390fd5b60011515600360009054906101000a900473ffffffffffffffffffffffffffffffffffffffff1673ffffffffffffffffffffffffffffffffffffffff16634929d081336040518263ffffffff1660e01b8152600401808273ffffffffffffffffffffffffffffffffffffffff1673ffffffffffffffffffffffffffffffffffffffff16815260200191505060206040518083038186803b15801561213957600080fd5b505afa15801561214d573d6000803e3d6000fd5b505050506040513d602081101561216357600080fd5b81019080805190602001909291905050501515146121cc576040517f08c379a0000000000000000000000000000000000000000000000000000000008152600401808060200182810382526037815260200180613a2e6037913960400191505060405180910390fd5b600360009054906101000a900473ffffffffffffffffffffffffffffffffffffffff1673ffffffffffffffffffffffffffffffffffffffff16638161b1ee836040518263ffffffff1660e01b8152600401808273ffffffffffffffffffffffffffffffffffffffff1673ffffffffffffffffffffffffffffffffffffffff16815260200191505060206040518083038186803b15801561226b57600080fd5b505afa15801561227f573d6000803e3d6000fd5b505050506040513d602081101561229557600080fd5b81019080805190602001909291905050509050919050565b6001612304576040517f08c379a0000000000000000000000000000000000000000000000000000000008152600401808060200182810382526025815260200180613aa16025913960400191505060405180910390fd5b6000809054906101000a900473ffffffffffffffffffffffffffffffffffffffff1673ffffffffffffffffffffffffffffffffffffffff163373ffffffffffffffffffffffffffffffffffffffff16146123c6576040517f08c379a000000000000000000000000000000000000000000000000000000000815260040180806020018281038252601c8152602001807f43616c6c6572206973206e6f7420636f6e7472616374206f776e65720000000081525060200191505060405180910390fd5b8060018190555050565b8560ff16600560003373ffffffffffffffffffffffffffffffffffffffff1673ffffffffffffffffffffffffffffffffffffffff16815260200190815260200160002060010160006003811061242257fe5b602091828204019190069054906101000a900460ff1660ff1614806124af57508560ff16600560003373ffffffffffffffffffffffffffffffffffffffff1673ffffffffffffffffffffffffffffffffffffffff16815260200190815260200160002060010160016003811061249457fe5b602091828204019190069054906101000a900460ff1660ff16145b8061252257508560ff16600560003373ffffffffffffffffffffffffffffffffffffffff1673ffffffffffffffffffffffffffffffffffffffff16815260200190815260200160002060010160026003811061250757fe5b602091828204019190069054906101000a900460ff1660ff16145b612577576040517f08c379a0000000000000000000000000000000000000000000000000000000008152600401808060200182810382526023815260200180613ac66023913960400191505060405180910390fd5b60008686868686604051602001808660ff1660ff1660f81b81526001018573ffffffffffffffffffffffffffffffffffffffff1673ffffffffffffffffffffffffffffffffffffffff1660601b815260140184848082843780830192505050828152602001955050505050506040516020818303038152906040528051906020012090506006600082815260200190815260200160002060000160149054906101000a900460ff16612674576040517f08c379a000000000000000000000000000000000000000000000000000000000815260040180806020018281038252602f8152602001806139dd602f913960400191505060405180910390fd5b6006600082815260200190815260200160002060010160008360ff1660ff1681526020019081526020016000203390806001815401808255809150509060018203906000526020600020016000909192909190916101000a81548173ffffffffffffffffffffffffffffffffffffffff021916908373ffffffffffffffffffffffffffffffffffffffff160217905550507f43c853095c2752648493c88b4baac4d580d2594ffb00c6f1d4242d844514f7838686868686604051808673ffffffffffffffffffffffffffffffffffffffff1673ffffffffffffffffffffffffffffffffffffffff168152602001806020018481526020018360ff1660ff1681526020018281038252868682818152602001925080828437600081840152601f19601f820116905080830192505050965050505050505060405180910390a160036006600083815260200190815260200160002060010160008460ff1660ff16815260200190815260200160002080549050106128e8577fe23f5229de535c091e3b7bec2665f5d698192d3b31393066e8987b7a05076b6c8686868686604051808673ffffffffffffffffffffffffffffffffffffffff1673ffffffffffffffffffffffffffffffffffffffff168152602001806020018481526020018360ff1660ff1681526020018281038252868682818152602001925080828437600081840152601f19601f820116905080830192505050965050505050505060405180910390a16128e78686868080601f016020809104026020016040519081016040528093929190818152602001838380828437600081840152601f19601f820116905080830192505050505050508585613670565b5b50505050505050565b60006001905090565b606060008060006001612958576040517f08c379a0000000000000000000000000000000000000000000000000000000008152600401808060200182810382526025815260200180613aa16025913960400191505060405180910390fd5b600360009054906101000a900473ffffffffffffffffffffffffffffffffffffffff1673ffffffffffffffffffffffffffffffffffffffff166368646a32866040518263ffffffff1660e01b8152600401808273ffffffffffffffffffffffffffffffffffffffff1673ffffffffffffffffffffffffffffffffffffffff16815260200191505060006040518083038186803b1580156129f757600080fd5b505afa158015612a0b573d6000803e3d6000fd5b505050506040513d6000823e3d601f19601f820116820180604052506080811015612a3557600080fd5b8101908080516040519392919084640100000000821115612a5557600080fd5b83820191506020820185811115612a6b57600080fd5b8251866001820283011164010000000082111715612a8857600080fd5b8083526020830192505050908051906020019080838360005b83811015612abc578082015181840152602081019050612aa1565b50505050905090810190601f168015612ae95780820380516001836020036101000a031916815260200191505b5060405260200180519060200190929190805190602001909291908051906020019092919050505093509350935093509193509193565b6000806001612b7a576040517f08c379a0000000000000000000000000000000000000000000000000000000008152600401808060200182810382526025815260200180613aa16025913960400191505060405180910390fd5b60011515600360009054906101000a900473ffffffffffffffffffffffffffffffffffffffff1673ffffffffffffffffffffffffffffffffffffffff16634929d081336040518263ffffffff1660e01b8152600401808273ffffffffffffffffffffffffffffffffffffffff1673ffffffffffffffffffffffffffffffffffffffff16815260200191505060206040518083038186803b158015612c1d57600080fd5b505afa158015612c31573d6000803e3d6000fd5b505050506040513d6020811015612c4757600080fd5b8101908080519060200190929190505050151514612cb0576040517f08c379a0000000000000000000000000000000000000000000000000000000008152600401808060200182810382526037815260200180613a2e6037913960400191505060405180910390fd5b600360009054906101000a900473ffffffffffffffffffffffffffffffffffffffff1673ffffffffffffffffffffffffffffffffffffffff16638161b1ee856040518263ffffffff1660e01b8152600401808273ffffffffffffffffffffffffffffffffffffffff1673ffffffffffffffffffffffffffffffffffffffff16815260200191505060206040518083038186803b158015612d4f57600080fd5b505afa158015612d63573d6000803e3d6000fd5b505050506040513d6020811015612d7957600080fd5b8101908080519060200190929190505050612ddf576040517f08c379a000000000000000000000000000000000000000000000000000000000815260040180806020018281038252603c815260200180613a65603c913960400191505060405180910390fd5b6004600360009054906101000a900473ffffffffffffffffffffffffffffffffffffffff1673ffffffffffffffffffffffffffffffffffffffff16633ccd30c26040518163ffffffff1660e01b815260040160206040518083038186803b158015612e4957600080fd5b505afa158015612e5d573d6000803e3d6000fd5b505050506040513d6020811015612e7357600080fd5b81019080805190602001909291905050501161302e57600360009054906101000a900473ffffffffffffffffffffffffffffffffffffffff1673ffffffffffffffffffffffffffffffffffffffff166308314f99858560016040518463ffffffff1660e01b8152600401808473ffffffffffffffffffffffffffffffffffffffff1673ffffffffffffffffffffffffffffffffffffffff16815260200180602001836003811115612f2057fe5b60ff168152602001828103825284818151815260200191508051906020019080838360005b83811015612f60578082015181840152602081019050612f45565b50505050905090810190601f168015612f8d5780820380516001836020036101000a031916815260200191505b50945050505050600060405180830381600087803b158015612fae57600080fd5b505af1158015612fc2573d6000803e3d6000fd5b505050507f89a6354fb229eda6cbc28306798727b4d524818d2c375220bc3f360f24cffaca84604051808273ffffffffffffffffffffffffffffffffffffffff1673ffffffffffffffffffffffffffffffffffffffff16815260200191505060405180910390a16131cf565b600360009054906101000a900473ffffffffffffffffffffffffffffffffffffffff1673ffffffffffffffffffffffffffffffffffffffff166308314f99858560006040518463ffffffff1660e01b8152600401808473ffffffffffffffffffffffffffffffffffffffff1673ffffffffffffffffffffffffffffffffffffffff168152602001806020018360038111156130c557fe5b60ff168152602001828103825284818151815260200191508051906020019080838360005b838110156131055780820151818401526020810190506130ea565b50505050905090810190601f1680156131325780820380516001836020036101000a031916815260200191505b50945050505050600060405180830381600087803b15801561315357600080fd5b505af1158015613167573d6000803e3d6000fd5b505050507f5b0ff847aef9d343808378b5867168530e8d96758ca10dbdb2c25c6c8ac6480184604051808273ffffffffffffffffffffffffffffffffffffffff1673ffffffffffffffffffffffffffffffffffffffff16815260200191505060405180910390a15b816000809050915091509250929050565b6001613237576040517f08c379a0000000000000000000000000000000000000000000000000000000008152600401808060200182810382526025815260200180613aa16025913960400191505060405180910390fd5b60006132423361375b565b905060008186868686604051602001808660ff1660ff1660f81b81526001018573ffffffffffffffffffffffffffffffffffffffff1673ffffffffffffffffffffffffffffffffffffffff1660601b8152601401848480828437808301925050508281526020019550505050505060405160208183030381529060405280519060200120905060405180604001604052803373ffffffffffffffffffffffffffffffffffffffff168152602001600115158152506006600083815260200190815260200160002060008201518160000160006101000a81548173ffffffffffffffffffffffffffffffffffffffff021916908373ffffffffffffffffffffffffffffffffffffffff16021790555060208201518160000160146101000a81548160ff0219169083151502179055509050507f3ed01f2c3fc24c6b329d931e35b03e390d23497d22b3f90e15b600343e93df118287878787604051808660ff1660ff1681526020018573ffffffffffffffffffffffffffffffffffffffff1673ffffffffffffffffffffffffffffffffffffffff168152602001806020018381526020018281038252858582818152602001925080828437600081840152601f19601f820116905080830192505050965050505050505060405180910390a1505050505050565b61343061384b565b61343861384b565b6134418361375b565b8160006003811061344e57fe5b602002019060ff16908160ff16815250508060006003811061346c57fe5b60200201518160016003811061347e57fe5b602002019060ff16908160ff16815250505b8060006003811061349d57fe5b602002015160ff16816001600381106134b257fe5b602002015160ff1614156134ec576134c98361375b565b816001600381106134d657fe5b602002019060ff16908160ff1681525050613490565b806001600381106134f957fe5b60200201518160026003811061350b57fe5b602002019060ff16908160ff16815250505b8060006003811061352a57fe5b602002015160ff168160026003811061353f57fe5b602002015160ff16148061357a57508060016003811061355b57fe5b602002015160ff168160026003811061357057fe5b602002015160ff16145b156135ab576135888361375b565b8160026003811061359557fe5b602002019060ff16908160ff168152505061351d565b80915050919050565b6000838383604051602001808473ffffffffffffffffffffffffffffffffffffffff1673ffffffffffffffffffffffffffffffffffffffff1660601b815260140183805190602001908083835b602083106136245780518252602082019150602081019050602083039250613601565b6001836020036101000a03801982511681845116808217855250505050505090500182815260200193505050506040516020818303038152906040528051906020012090509392505050565b600061367d8585856135b4565b9050816002600083815260200190815260200160002060030160016101000a81548160ff021916908360ff160217905550601460ff168260ff16141561375457600360009054906101000a900473ffffffffffffffffffffffffffffffffffffffff1673ffffffffffffffffffffffffffffffffffffffff166383ca1d7d8260966040518363ffffffff1660e01b81526004018083815260200182815260200192505050600060405180830381600087803b15801561373b57600080fd5b505af115801561374f573d6000803e3d6000fd5b505050505b5050505050565b600080600a905060008160ff166003601481819054906101000a900460ff168092919060010191906101000a81548160ff021916908360ff16021790555060ff1643034085604051602001808381526020018273ffffffffffffffffffffffffffffffffffffffff1673ffffffffffffffffffffffffffffffffffffffff1660601b8152601401925050506040516020818303038152906040528051906020012060001c8161380657fe5b06905060fa600360149054906101000a900460ff1660ff161115613841576000600360146101000a81548160ff021916908360ff1602179055505b8092505050919050565b6040518060600160405280600390602082028038833980820191505090505090565b826003601f016020900481019282156138f65791602002820160005b838211156138c757835183826101000a81548160ff021916908360ff1602179055509260200192600101602081600001049283019260010302613889565b80156138f45782816101000a81549060ff02191690556001016020816000010492830192600103026138c7565b505b5090506139039190613987565b5090565b828054600181600116156101000203166002900490600052602060002090601f016020900481019282601f1061394857805160ff1916838001178555613976565b82800160010185558215613976579182015b8281111561397557825182559160200191906001019061395a565b5b50905061398391906139b7565b5090565b6139b491905b808211156139b057600081816101000a81549060ff02191690555060010161398d565b5090565b90565b6139d991905b808211156139d55760008160009055506001016139bd565b5090565b9056fe466c69676874206f722074696d657374616d7020646f206e6f74206d61746368206f7261636c652072657175657374466c696768742068617320616c7265616479206265656e2072656769737465726564436f6e74726163742043616c6c6572206973206e6f7420617574686f72697a656420746f2063616c6c20746869732066756e6374696f6e4169726c696e65206d7573742070617920726567697374726174696f6e2066656520746f207265676973746572206f74686572206169726c696e6573436f6e74726163742069732063757272656e746c79206e6f74206f7065726174696f6e616c496e64657820646f6573206e6f74206d61746368206f7261636c652072657175657374a265627a7a723158206e0a8f7fd35209aae523a6400791e26beefc43b94bfaae871abcb50f5938f2f964736f6c63430005100032",
  "source": "pragma solidity ^0.5.0;\n\n// It's important to avoid vulnerabilities due to numeric overflow bugs\n// OpenZeppelin's SafeMath library, when used correctly, protects agains such bugs\n// More info: https://www.nccgroup.trust/us/about-us/newsroom-and-events/blog/2018/november/smart-contract-insecurity-bad-arithmetic/\n\nimport \"../node_modules/openzeppelin-solidity/contracts/math/SafeMath.sol\";\nimport \"./FlightSuretyData.sol\";\n\n/************************************************** */\n/* FlightSurety Smart Contract                      */\n/************************************************** */\ncontract FlightSuretyApp {\n    using SafeMath for uint256; // Allow SafeMath functions to be called for all uint256 types (similar to \"prototype\" in Javascript)\n\n    /********************************************************************************************/\n    /*                                       DATA VARIABLES                                     */\n    /********************************************************************************************/\n\n    // Flight status codees\n    uint8 private constant STATUS_CODE_UNKNOWN = 0;\n    uint8 private constant STATUS_CODE_ON_TIME = 10;\n    uint8 private constant STATUS_CODE_LATE_AIRLINE = 20;\n    uint8 private constant STATUS_CODE_LATE_WEATHER = 30;\n    uint8 private constant STATUS_CODE_LATE_TECHNICAL = 40;\n    uint8 private constant STATUS_CODE_LATE_OTHER = 50;\n\n    // Account used to deploy contract\n    address private contractOwner;\n\n    // insurance payout percentage\n    uint insurancePayoutPercentage = 0;\n\n\n    struct Flight {\n        address airline;\n        string name;\n        uint256 departure;\n        bool isRegistered;\n        uint8 statusCode;\n        uint256 updatedTimestamp;\n    }\n    mapping(bytes32 => Flight) private flights;\n\n\n    FlightSuretyData flightSuretyData;\n\n    /********************************************************************************************/\n    /*                                       EVENT DEFINITIONS                                  */\n    /********************************************************************************************/\n    event AirlineRegistered(address airlineAddress);\n    event AirlineVotesRequired(address airlineAddress);\n    event AirlineDeniedRegistration(address airlineAddress);\n    event FlightInsurancePurchased(address airlineAddress, address passengerAddress, string flightName);\n\n\n    /********************************************************************************************/\n    /*                                       FUNCTION MODIFIERS                                 */\n    /********************************************************************************************/\n\n    // Modifiers help avoid duplication of code. They are typically used to validate something\n    // before a function is allowed to be executed.\n\n    /**\n    * @dev Modifier that requires the \"operational\" boolean variable to be \"true\"\n    *      This is used on all state changing functions to pause the contract in\n    *      the event there is an issue that needs to be fixed\n    */\n    modifier requireIsOperational()\n    {\n         // Modify to call data contract's status\n        require(true, \"Contract is currently not operational\");\n        _;  // All modifiers require an \"_\" which indicates where the function body will be added\n    }\n\n    /**\n    * @dev Modifier that requires the \"ContractOwner\" account to be the function caller\n    */\n    modifier requireContractOwner()\n    {\n        require(msg.sender == contractOwner, \"Caller is not contract owner\");\n        _;\n    }\n\n   /**\n    * @dev Modifier that requires the contract caller is authorized to call function\n    */\n    modifier requireCallerAuthorized\n    {\n        require(flightSuretyData.isCallerAuthorized(msg.sender) == true, \"Contract Caller is not authorized to call this function\");\n        _;\n    }\n\n    /**\n    * @dev Modifier that requires the airline is not registered\n    */\n    modifier requireAirlineNotRegistered(address airlineAddress)\n    {\n        require(!flightSuretyData.isAirlineRegistered(airlineAddress), \"Airline has already registered\");\n        _;\n    }\n\n    /**\n    * @dev Modifier that requires the airline is registered\n    */\n    modifier requireAirlineRegistered(address airlineAddress)\n    {\n        require(flightSuretyData.isAirlineRegistered(airlineAddress), \"Airline has already registered\");\n        _;\n    }\n\n\n    /**\n    * @dev Modifier that requires the airline is a member\n    */\n    modifier requireAirlineMember(address airlineAddress)\n    {\n        require(flightSuretyData.isAirlineMember(airlineAddress), \"Airline is not a voting member\");\n        _;\n    }\n\n     /**\n    * @dev Modifier that requires the flight is not registered\n    */\n    modifier requireFlightNotRegistered(bytes32 flightKey)\n    {\n        require(!flights[flightKey].isRegistered, \"Flight has already been registered\");\n        _;\n    }\n\n   \n    /********************************************************************************************/\n    /*                                       CONSTRUCTOR                                        */\n    /********************************************************************************************/\n\n    /**\n    * @dev Contract constructor\n    *\n    */\n    constructor(address payable flightSuretyDataContractAddress)\n        public\n    {\n        contractOwner = msg.sender;\n        flightSuretyData = FlightSuretyData(flightSuretyDataContractAddress);\n    }\n\n    /********************************************************************************************/\n    /*                                       UTILITY FUNCTIONS                                  */\n    /********************************************************************************************/\n\n    function isOperational()\n        public\n        pure\n        returns(bool)\n    {\n        return true;  // Modify to call data contract's status\n    }\n\n    function isAirlineMember(address airlineAddress)\n        external\n        view\n        requireIsOperational\n        requireCallerAuthorized\n        returns (bool)\n    {\n        return flightSuretyData.isAirlineMember(airlineAddress);\n    }\n\n    /**\n    * @dev Set Airline Registration Cost\n    *\n    * Have the contract owner set the cost of the airline registration\n    */\n    function setAirlineRegistrationCost(uint registrationCost)\n        external\n        requireIsOperational\n        requireContractOwner\n    {\n        REGISTRATION_FEE = registrationCost;\n    }\n\n    /* @dev Set Insurance Percentage Amount\n    *\n    * \n    */\n    function setInsurancePercentageAmount(uint percentAmount)\n        external\n        requireIsOperational\n        requireContractOwner\n    {\n        insurancePayoutPercentage = percentAmount;\n    }\n\n    function airlineRegistrationCost()\n        external\n        view\n        requireIsOperational\n        requireContractOwner\n        returns (uint)\n    {\n        return REGISTRATION_FEE;\n    }\n\n    function setAuthorizedAddress(address contractCallerAddress)\n                            external\n                            requireIsOperational\n                            requireContractOwner\n    {\n        flightSuretyData.setAuthorizedAddress(contractCallerAddress);\n    }\n    /********************************************************************************************/\n    /*                                     SMART CONTRACT FUNCTIONS                             */\n    /********************************************************************************************/\n\n    /**\n    * @dev Add an airline to the registration queue\n    *\n    */\n    function registerAirline(address airlineAddress, string memory  airlineName)\n        public\n        requireIsOperational\n        requireCallerAuthorized\n        returns(bool success, uint256 votes)\n    {\n        require(flightSuretyData.isAirlineMember(airlineAddress), \"Airline must pay registration fee to register other airlines\");\n\n        if (flightSuretyData.airlineMemberCount() <= 4) {\n            flightSuretyData.registerAirline(airlineAddress, airlineName, FlightSuretyData.AirlineState.Registered);\n            emit AirlineRegistered(airlineAddress);\n\n        } else {\n            // Airlines must vote to register additional airlines over 4\n            // Multi-party consensus required of 50% of member airline to approve\n            flightSuretyData.registerAirline(airlineAddress, airlineName, FlightSuretyData.AirlineState.VotesRequired);\n            emit AirlineVotesRequired(airlineAddress);\n       }\n        return (success, 0);\n    }\n\n    /**\n    * @dev Add an airline to the registration queue\n    *\n    */\n    function voteByConsensus(address airlineAddress, bool vote)\n        public\n        requireIsOperational\n        requireCallerAuthorized\n        requireAirlineRegistered(airlineAddress)\n        returns(FlightSuretyData.AirlineState registrationState)\n    {\n\n        // Airlines must vote to register additional airlines over 4\n        // Multi-party consensus required of 50% of member airline to approve\n        uint airlineMemberCnt = flightSuretyData.airlineMemberCount();\n        uint votesRequired = airlineMemberCnt / (insurancePayoutPercentage / 100);\n\n        (uint yesTotalVotes, uint totalVotes) = flightSuretyData.voteOnAirline(airlineAddress, vote);\n\n        if (yesTotalVotes >= votesRequired) {\n            flightSuretyData.setAirlineState(airlineAddress, FlightSuretyData.AirlineState.Registered);\n            emit AirlineRegistered(airlineAddress);\n        } else {\n            uint availableVotes = airlineMemberCnt - totalVotes;\n            if (availableVotes < (votesRequired - yesTotalVotes)) {\n                flightSuretyData.setAirlineState(airlineAddress, FlightSuretyData.AirlineState.DeniedRegistration);\n                emit AirlineDeniedRegistration(airlineAddress);\n            }\n        }\n\n        return registrationState;\n    }\n\n    function fundAirlineRegistration()\n        external\n        payable\n        requireIsOperational\n        requireCallerAuthorized\n        requireAirlineRegistered(msg.sender)\n    {\n        flightSuretyData.airlinePayFund.value(msg.value)();\n\n    }\n\n    function registerFlight(string calldata flightName, uint256 scheduledDeparture)\n        external\n        requireIsOperational\n    {\n        bytes32 flightKey = getFlightKey(msg.sender, flightName, scheduledDeparture);\n\n        require(!flights[flightKey].isRegistered, \"Flight has already been registered\");\n\n        flights[flightKey] = Flight({airline: msg.sender,\n                                    name: flightName,\n                                    departure: scheduledDeparture,\n                                    isRegistered: true,\n                                    statusCode: STATUS_CODE_UNKNOWN,\n                                    updatedTimestamp: now});\n    }\n\n    function getAirline(address airlineAddress)\n        external\n        view\n        requireIsOperational\n        returns(\n            string memory name,\n            uint registerAmount,\n            FlightSuretyData.AirlineState airlineState,\n            bool isValue\n        )\n    {\n        return flightSuretyData.airlineInfo(airlineAddress);\n    }\n\n   /**\n    * @dev Called after oracle has updated flight status\n    *\n    */\n    function processFlightStatus\n                                (\n                                    address airline,\n                                    string memory flight,\n                                    uint256 timestamp,\n                                    uint8 statusCode\n                                )\n        internal\n    {\n        bytes32 flightKey = getFlightKey(airline, flight, timestamp);\n        flights[flightKey].statusCode = statusCode;\n\n        if (statusCode == STATUS_CODE_LATE_AIRLINE) {\n            flightSuretyData.creditInsurees(flightKey, PAYOUT_RATE);\n        }\n    }\n\n\n    // Generate a request for oracles to fetch flight information\n    function fetchFlightStatus\n                        (\n                            address airline,\n                            string calldata flightName,\n                            uint256 timestamp\n                        )\n                        external\n                        requireIsOperational\n    {\n        uint8 index = getRandomIndex(msg.sender);\n\n        // Generate a unique key for storing the request\n        bytes32 key = keccak256(abi.encodePacked(index, airline, flightName, timestamp));\n        oracleResponses[key] = ResponseInfo({\n                                                requester: msg.sender,\n                                                isOpen: true\n                                            });\n\n        emit OracleRequest(index, airline, flightName, timestamp);\n    }\n\n    function purchaseFlightInsurance\n    (\n        address passengerAddress,\n        address airlineAddress,\n        string calldata flightName,\n        uint256 departureTime,\n        uint insuranceCost\n    )\n        external\n        payable\n        requireIsOperational\n    {\n        bytes32 flightKey = getFlightKey(airlineAddress, flightName, departureTime);\n\n        require(flights[flightKey].isRegistered, \"Flight has not been registered\");\n\n        flightSuretyData.buyFlightInsurance.value(msg.value)(\n            passengerAddress,\n            airlineAddress,\n            flightName,\n            departureTime,\n            insuranceCost\n        );\n\n        emit FlightInsurancePurchased(airlineAddress, passengerAddress, flightName);\n    }\n// region ORACLE MANAGEMENT\n\n    // Incremented to add pseudo-randomness at various points\n    uint8 private nonce = 0;\n\n    // Fee to be paid when registering oracle\n    uint256 public REGISTRATION_FEE = 1 ether;\n\n    // Credit rate paid to flight insurance holders\n    uint private constant PAYOUT_RATE = 150;\n\n    // Number of oracles that must respond for valid status\n    uint256 private constant MIN_RESPONSES = 3;\n\n\n    struct Oracle {\n        bool isRegistered;\n        uint8[3] indexes;\n    }\n\n    // Track all registered oracles\n    mapping(address => Oracle) private oracles;\n\n    // Model for responses from oracles\n    struct ResponseInfo {\n        address requester;                              // Account that requested status\n        bool isOpen;                                    // If open, oracle responses are accepted\n        mapping(uint8 => address[]) responses;          // Mapping key is the status code reported\n                                                        // This lets us group responses and identify\n                                                        // the response that majority of the oracles\n    }\n\n    // Track all oracle responses\n    // Key = hash(index, flight, timestamp)\n    mapping(bytes32 => ResponseInfo) private oracleResponses;\n\n    // Event fired each time an oracle submits a response\n    event FlightStatusInfo(address airline, string flight, uint256 timestamp, uint8 status);\n\n    event OracleReport(address airline, string flight, uint256 timestamp, uint8 status);\n\n    // Event fired when flight status request is submitted\n    // Oracles track this and if they have a matching index\n    // they fetch data and submit a response\n    event OracleRequest(uint8 index, address airline, string flight, uint256 timestamp);\n\n\n    // Register an oracle with the contract\n    function registerOracle()\n        external\n        payable\n       requireIsOperational\n    {\n        // Require registration fee\n        require(msg.value >= REGISTRATION_FEE, \"Registration fee is required\");\n\n        uint8[3] memory indexes = generateIndexes(msg.sender);\n\n        address payable flightSuretyDataContract = address(uint160(address(flightSuretyData)));\n        flightSuretyDataContract.transfer(msg.value);\n\n        oracles[msg.sender] = Oracle({\n                                        isRegistered: true,\n                                        indexes: indexes\n                                    });\n    }\n\n    function getMyIndexes\n                            (\n                            )\n                            external\n                             view\n                           returns(uint8[3] memory)\n    {\n        require(oracles[msg.sender].isRegistered, \"Not registered as an oracle\");\n\n        return oracles[msg.sender].indexes;\n    }\n\n    // Called by oracle when a response is available to an outstanding request\n    // For the response to be accepted, there must be a pending request that is open\n    // and matches one of the three Indexes randomly assigned to the oracle at the\n    // time of registration (i.e. uninvited oracles are not welcome)\n    function submitOracleResponse\n                        (\n                            uint8 index,\n                            address airline,\n                            string calldata flight,\n                            uint256 timestamp,\n                            uint8 statusCode\n                        )\n                        external\n    {\n        require(\n            (oracles[msg.sender].indexes[0] == index) || \n            (oracles[msg.sender].indexes[1] == index) || \n            (oracles[msg.sender].indexes[2] == index),\n            \"Index does not match oracle request\");\n\n\n        bytes32 key = keccak256(abi.encodePacked(index, airline, flight, timestamp)); \n        require(oracleResponses[key].isOpen, \"Flight or timestamp do not match oracle request\");\n\n        oracleResponses[key].responses[statusCode].push(msg.sender);\n\n        // Information isn't considered verified until at least MIN_RESPONSES\n        // oracles respond with the *** same *** information\n        emit OracleReport(airline, flight, timestamp, statusCode);\n        if (oracleResponses[key].responses[statusCode].length >= MIN_RESPONSES) {\n\n            emit FlightStatusInfo(airline, flight, timestamp, statusCode);\n\n            // Handle flight status as appropriate\n            processFlightStatus(airline, flight, timestamp, statusCode);\n        }\n    }\n\n    function getFlightKey\n                        (\n                            address airline,\n                            string memory flight,\n                            uint256 timestamp\n                        )\n                        pure\n                        internal\n                        returns(bytes32) \n    {\n        return keccak256(abi.encodePacked(airline, flight, timestamp));\n    }\n\n    // Returns array of three non-duplicating integers from 0-9\n    function generateIndexes\n                            (                       \n                                address account         \n                            )\n                            internal\n                            returns(uint8[3] memory)\n    {\n        uint8[3] memory indexes;\n        indexes[0] = getRandomIndex(account);\n        \n        indexes[1] = indexes[0];\n        while(indexes[1] == indexes[0]) {\n            indexes[1] = getRandomIndex(account);\n        }\n\n        indexes[2] = indexes[1];\n        while((indexes[2] == indexes[0]) || (indexes[2] == indexes[1])) {\n            indexes[2] = getRandomIndex(account);\n        }\n\n        return indexes;\n    }\n\n    // Returns array of three non-duplicating integers from 0-9\n    function getRandomIndex\n                            (\n                                address account\n                            )\n                            internal\n                            returns (uint8)\n    {\n        uint8 maxValue = 10;\n\n        // Pseudo random number...the incrementing nonce adds variation\n        uint8 random = uint8(uint256(keccak256(abi.encodePacked(blockhash(block.number - nonce++), account))) % maxValue);\n\n        if (nonce > 250) {\n            nonce = 0;  // Can only fetch blockhashes for last 256 blocks so we adapt\n        }\n\n        return random;\n    }\n\n// endregion\n\n}   \n",
  "sourcePath": "/Users/mariepatterson/udacity/blockchain/term2/flight-surety/contracts/FlightSuretyApp.sol",
  "compiler": {
    "name": "solc",
    "version": "0.5.16+commit.9c3226ce.Emscripten.clang"
  },
  "schemaVersion": "3.0.16",
  "updatedAt": "2020-01-04T00:50:39.635Z",
  "devdoc": {
    "methods": {
      "constructor": {
        "details": "Contract constructor    "
      },
      "registerAirline(address,string)": {
        "details": "Add an airline to the registration queue    "
      },
      "setAirlineRegistrationCost(uint256)": {
        "details": "Set Airline Registration Cost    * Have the contract owner set the cost of the airline registration"
      },
      "voteByConsensus(address,bool)": {
        "details": "Add an airline to the registration queue    "
      }
    }
  },
  "userdoc": {
    "methods": {
      "isOperational()": {
        "notice": "*****************************************************************************************"
      }
    },
    "notice": "************************************************ "
  }
}